:1000000012C02AC029C013C127C0B9C025C024C04E
:1000100023C022C021C020C01FC01EC01DC01CC0E4
:100020001BC01AC019C011241FBECFEDCDBF10E0F8
:10003000A0E6B0E0E8E5F5E002C005900D92AE382C
:10004000B107D9F710E0AEE8B0E001C01D92A63AC2
:10005000B107E1F7C9D17EC2D3CF92B989B986E0A1
:1000600083B988E08AB908955D9BFECF8CB9089565
:10007000CF93DF93EC0101C0F7DF89918823E1F78B
:10008000DF91CF9108950F931F93CF93DF938A0150
:1000900097FF07C0EB012DE22993909581959F4F23
:1000A00003C0009719F0EB019E0104C0FB0180E33F
:1000B00081930DC0B80127D2FC01E05AFF4F808127
:1000C000F90181939F01CB010097A1F7BE01108236
:1000D000DB0104C08C9190819D9380833197AE1792
:1000E000BF07C0F3DF91CF911F910F910895CF9378
:1000F000DF93CDB7DEB7C051CDBFBE016F5F7F4F7D
:100100004AE050E0C0DFCE010196B2DF87E99AE312
:100110000197F1F700C00000C05FCDBFDF91CF9124
:1001200008951BBA1ABA18BA8BE187BB80E482BB68
:1001300086E081BB0895F5DF04D081E890E08DDF93
:10014000089583E080BF88E083BF84ED86BF1CBE36
:1001500083EA8FBD89ED8EBD15BC14BC84ED93E0A0
:100160009BBD8ABD19BC18BC88E889BF08959C0155
:1001700097FF03C0309521953F4FC90108951F9205
:100180000F920FB60F9211242F933F938F939F934B
:1001900021E030E0869B02C020E030E080919800B2
:1001A00090919900820F931F9093990080939800EB
:1001B0002091960030919700223031053CF48EB5A5
:1001C0008F7BF9F08EB580648EBD1BC020919600A8
:1001D0003091970028303105C4F0853091053CF00E
:1001E00088EB93E090939F0080939E0004C0109250
:1001F0009F0010929E0081E090E090939700809382
:10020000960010929900109298008091960090911B
:100210009700019690939700809396009F918F91FD
:100220003F912F910F900FBE0F901F9018951F9226
:100230000F920FB60F9211242F933F938F939F939A
:100240000EB406FE11C08EB58F7B8EBD84B595B5FC
:100250009093A5008093A40081E090E09093930098
:1002600080939200929A6DC08EB580648EBD84B5E5
:1002700095B590939D0080939C0080919200909101
:1002800093008130910509F057C020918E00309184
:100290008F0080919C0090919D002817390709F4E8
:1002A0004BC020919000309191008091A4009091DA
:1002B000A5002817390709F43FC020919C00309110
:1002C0009D008091A4009091A5002817390721F185
:1002D00020919C0030919D008091A4009091A500F8
:1002E0008217930748F08091A4009091A500209177
:1002F0009C0030919D000AC08091A4009091A500BF
:1003000020919C0030919D008C529C4F821B930B3E
:1003100090939F0080939E0080919C0090919D00FF
:1003200090938F0080938E008091A4009091A500FF
:100330009093910080939000929810929300109265
:10034000920010929700109296009F918F913F918A
:100350002F910F900FBE0F901F90189580B390E0D3
:10036000809590958873907023E0959587952A9550
:10037000E1F782309105C9F08330910534F400979C
:1003800071F18130910559F50AC08430910589F0E9
:100390008430910564F08530910509F512C0C0984C
:1003A00080918C0090918D000EC0C09A03C0C09ABD
:1003B00009C0C09880918C0090918D0086BF8FEF0E
:1003C00007C0C0988FEF86BF80918C0090918D0000
:1003D0008CBF80918B00813029F4C19A0895C09818
:1003E00016BE1CBEC1980895F894A5DE78948CEDD5
:1003F00091E090939F0080939E00C3E0D2E011E0D3
:1004000024E6E22EF12C80919E0090919F0021E045
:10041000873E92071CF010938B000DC080919E00C8
:1004200090919F0021E0823D92071CF4D0938B00B5
:1004300002C0C0938B00C09880918B00833031F450
:10044000C19819BC18BC80E090E027C020919E00A4
:1004500030919F002C5D3140C90161E470E041D0D2
:10046000B70151D0620F731F77FD03C084EC90E099
:1004700002C08CE39FEF680F791F77FF03C0709570
:1004800061957F4FCB0123E0653D720714F084ED49
:1004900093E099BD88BD88B599B520918B00213036
:1004A00011F4C19805C020918B00223009F4C19A43
:1004B00028B539B52817390711F019BC18BC809137
:1004C0009E0090919F0013DE85E890E0D1DD88B515
:1004D00099B50DDE85E890E0CBDD88E890E0C8DDD9
:1004E00092CF5527002480FF02C0060E571F660FCB
:1004F000771F6115710521F096958795009799F7FB
:10050000952F802D089597FB092E07260AD077FD99
:1005100004D00CD006D000201AF4709561957F4F5E
:100520000895F6F7909581959F4F0895AA1BBB1BE0
:1005300051E107C0AA1FBB1FA617B70710F0A61BE3
:10054000B70B881F991F5A95A9F780959095BC0104
:10055000CD010895F894FFCF30313233343536373A
:1005600038396162636465666768696A6B6C6D6E71
:100570006F707172737475767778797A002C0900D0
:100580000A0D0003FF01FFFFFFFFFFFFFFFFFFFF5B
:10059000FFFFFFFFFFFFFFFFFFFFFFFFFFFFFFFF6B
:1005A000FFFFFFFFFFFFFFFFFFFFFFFFFFFFFFFF5B
:1005B000FFFFFFFFFFFFFFFFFFFFFFFFFFFFFFFF4B
:1005C000FFFFFFFFFFFFFFFFFFFFFFFFFFFFFFFF3B
:00000001FF
