:100000000C944B000C9468000C9468000C946800ED
:100010000C9468000C9468000C9468000C946800C0
:100020000C9468000C9468000C9468000C946800B0
:100030000C9468000C9468000C9468000C946800A0
:100040000C9468000C9468000C941D060C946800D5
:100050000C9468000C9468000C9468000C94680080
:100060000C9468000C946800084AD73B3BCE016EA4
:1000700084BCBFFDC12F3D6C74319ABD56833DDAFF
:100080003D00C77F11BED9E4BB4C3E916BAAAABE0E
:10009000000000803F0011241FBECFEFD4E0DEBF80
:1000A000CDBF12E0A0E0B1E0E2E8F8E202C00590C6
:1000B0000D92A633B107D9F712E0A6E3B2E001C072
:1000C0001D92AA3DB107E1F70E9427060C943F1448
:1000D0000C9400008FE78CBD08958EBD0DB407FE13
:1000E000FDCF8EB580E1982F9A95F1F72A98982F39
:1000F0009A95F1F72A9A8A95F1F70895299883E657
:1001000086BD85E085BD81E00E946D0083E40E948C
:100110006D0080E00E946D0080E00E946D008AE525
:100120000E946D008AE50E946D008AE50E946D00C4
:100130008AE50E946D008AE50E946D00299AA89BBD
:10014000FECFA89A15BC0895299883E686BD85E060
:1001500085BD81E00E946D008FE40E946D0080E00B
:100160000E946D008FEF0E946D008FEF0E946D0066
:1001700083E00E946D0080E00E946D0080E00E949C
:100180006D0080E00E946D00299AA89BFECFA89A7E
:1001900015BC0895299883E686BD85E085BD81E07C
:1001A0000E946D0083E40E946D0080E00E946D005B
:1001B00080E00E946D0080E00E946D0080E00E945F
:1001C0006D0080E00E946D0080E00E946D0080E084
:1001D0000E946D00299AA89BFECFA89A15BC08958D
:1001E000299883E686BD85E085BD81E00E946D008B
:1001F0008DE40E946D0080E00E946D0080E00E940E
:100200006D0081E00E946D008FEF0E946D008FEF06
:100210000E946D008FEF0E946D008FEF0E946D00B5
:10022000299AA89BFECFA89A15BC0895299883E621
:1002300086BD85E085BD81E00E946D0084E40E945A
:100240006D0080E00E946D0081E00E946D0083E0FF
:100250000E946D0080E00E946D0080E00E946D00B1
:1002600080E00E946D0080E00E946D00299AA89BAA
:10027000FECFA89A15BC0895299883E686BD85E02F
:1002800085BD81E00E946D0083E40E946D0080E0E6
:100290000E946D0081E00E946D0080E00E946D0070
:1002A00080E00E946D0080E00E946D0080E00E946E
:1002B0006D0080E00E946D00299AA89BFECFA89A4D
:1002C00015BC0895299883E686BD85E085BD81E04B
:1002D0000E946D0082E40E946D0080E00E946D002B
:1002E00080E00E946D0080E00E946D0080E00E942E
:1002F0006D0080E00E946D0080E00E946D0080E053
:100300000E946D00299AA89BFECFA89A15BC08955B
:10031000219A229A299A2A9A88EA91E60197F1F776
:100320008FE78CBD0E9462010E943C010E94160171
:100330000E94F0000E94CA000E943C010E94A4009A
:100340000E947E000E94CA000895BC0122E030E0B5
:1003500040E11EBC0DB407FEFDCF8EB5FB01E20FE0
:10036000F31F8083842F8A95F1F72A98842F8A952A
:10037000F1F72A9A842F8A95F1F72F5F3F4F2231A8
:10038000310539F70895FC016EBD0DB407FEFDCFB0
:100390008EB5808380E1982F9A95F1F72A98982F4F
:1003A0009A95F1F72A9A8A95F1F74EBD0DB407FE9A
:1003B000FDCF8EB5818380E1982F9A95F1F72A9829
:1003C000982F9A95F1F72A9A8A95F1F70895EF9266
:1003D000FF920F931F93CF93DF93EC018B017A0170
:1003E00080E090E0FE01E80FF91F10820196823153
:1003F0009105C1F7299883E686BD85E085BD81E03A
:100400000E946D0082E40E946D0080E00E946D00F9
:10041000CE01B801A7010E94C301CE010E94A5012F
:10042000299AA89BFECFA89A15BCDF91CF911F9166
:100430000F91FF90EF90089590913B02953848F00E
:1004400084E6989FC0011124845F934366E87FEFA0
:100450000DC09D3618F020E030E00BC084E6989F78
:10046000C001112480539A4264E97FEF0E949B11DE
:100470009B01C901089590913902953848F084E6AE
:10048000989FC0011124845F934366E87FEF0DC0FD
:10049000933618F020E030E00BC084E6989FC0014E
:1004A0001124885496426EE97FEF0E949B119B01B4
:1004B000C90108958EE198E09093D3028093D2020F
:1004C00086E198E09093D5028093D40284E393E090
:1004D0009093D7028093D60286E693E09093D90258
:1004E0008093D802E7E9F2E085E090E09183808391
:1004F00032961182108232961182108232961182C7
:1005000010823296118210823296118210823296B7
:10051000118210820895CF92DF92EF92FF920F9393
:100520001F93CF93DF936C01EE24FF2413C0D601F9
:10053000DD96ED91FC91DE97899109950F5F1F4F34
:1005400005301105A1F70894E11CF11CB9E0EB1688
:10055000F10469F0E701CC0FDD1FCC0FDD1FCE0DDC
:10056000DF1D2E96CC0DDD1D00E010E0E0CFC0E0D9
:10057000D0E0D601DD96ED91FC91DE978CE70995F0
:100580002196C530D105A9F7F60117821682DF91B1
:10059000CF911F910F91FF90EF90DF90CF90089532
:1005A000DC01809149028A3061F18091490290E03A
:1005B0002C91FC01EE0FFF1FE80FF91FE758FD4FCC
:1005C00020838091490290E011962C911197FC01B3
:1005D000EE0FFF1FE80FF91FE758FD4F21838091B1
:1005E000490290E012962C91FC01EE0FFF1FE80FDC
:1005F000F91FE758FD4F2283809149028F5F809356
:1006000049020895DC0180914902882361F18091BB
:1006100049028150809349028091490290E0FC0197
:10062000EE0FFF1FE80FF91FE758FD4F80818C93F5
:100630008091490290E0FC01EE0FFF1FE80FF91FC7
:10064000E758FD4F818111968C9311978091490253
:1006500090E0FC01EE0FFF1FE80FF91FE758FD4F78
:10066000828112968C930895DC01809148028A3031
:1006700061F18091480290E02C91FC01EE0FFF1F88
:10068000E80FF91FE55AFD4F20838091480290E062
:1006900011962C911197FC01EE0FFF1FE80FF91F27
:1006A000E55AFD4F21838091480290E012962C91EB
:1006B000FC01EE0FFF1FE80FF91FE55AFD4F2283E3
:1006C000809148028F5F809348020895DC018091F9
:1006D0004802882361F1809148028150809348024A
:1006E0008091480290E0FC01EE0FFF1FE80FF91F18
:1006F000E55AFD4F80818C938091480290E0FC0187
:10070000EE0FFF1FE80FF91FE55AFD4F818111968B
:100710008C9311978091480290E0FC01EE0FFF1F2F
:10072000E80FF91FE55AFD4F828112968C930895C8
:100730009C01261B370B37FF03C0309521953F4F97
:100740004217530754F48617970724F4BA01680F29
:10075000791F03C0BC01641B750BCB010895AC016C
:1007600028E030E0E0E8F0E069E870E0CF01022E38
:1007700002C0880F991F0A94E2F784239523892BDE
:1007800049F0CB01022E02C0880F991F0A94E2F7AC
:1007900048275927215030408FEF2F3F380731F736
:1007A000842F08950F931F938A01FA018083872F66
:1007B000992787FD9A9581836283CB010E94AF03BD
:1007C000F80183838CE784831F910F9108950F9321
:1007D0001F93CF93DF938C0180913A02C82FD0E012
:1007E000C138D10524F0CF39D1058CF006C080E89E
:1007F00090E08C1B9D0B4F9754F080914A02909192
:100800004B02BE0144E150E00E949803EC0180914C
:100810003B02682F70E06138710524F06F39710573
:1008200084F006C080E890E0861B970B4F974CF051
:1008300080914C0290914D0244E150E00E94980357
:10084000BC0170934D0260934C02D0934B02C09355
:100850004A027091360260E080913702680F711D84
:10086000A801425F5F4F84E20E94D20370913A0276
:1008700060E080913B02680F711DA8014D5E5F4FE3
:1008800083E30E94D2037091380260E080913902C4
:10089000680F711DA801485E5F4F85E50E94D20375
:1008A00070913C0260E080913D02680F711DA801CB
:1008B000435E5F4F8AE50E94D20370913E0260E082
:1008C00080913F02680F711DA8014E5D5F4F89E660
:1008D0000E94D2037091400260E080914102680F53
:1008E000711DA801495D5F4F86E90E94D203709196
:1008F000420260E080914302680F711DA801445DCF
:100900005F4F89E90E94D2037091440260E08091B8
:100910004502680F711DA8014F5C5F4F8AEA0E9473
:10092000D203809146028D3310F082E003C0882309
:1009300019F081E080934602809147028D3310F0D8
:1009400082E003C0882319F081E080934702709110
:10095000460260E080914702680F711D0A5C1F4FDC
:100960008CECA8010E94D20380E090E0DF91CF914F
:100970001F910F910895EF92FF920F931F93DF93B2
:10098000CF9300D00F92CDB7DEB77C01DC01149677
:100990000D911C911597DB96ED91FC91DC970995D3
:1009A000025B1D4FF801808381E090E0D70119962A
:1009B0009C938E9318978D919C9111970A9709F0AB
:1009C00050C014968D919C911597892B99F412968D
:1009D0008D919C911397029731F012968D919C9175
:1009E0001397039739F480914E02882319F0F70189
:1009F00013821282D70112968D919C9113970597BD
:100A000081F52091580280914E02821739F486E0D8
:100A100090E013969C938E93129723C084E090E00D
:100A2000F7019383828381E090E093878287298313
:100A300080914F028A83809150028B838FE390E0F4
:100A4000E80EF91ED701ED91FC9181EC9FEFE80EC5
:100A5000F91ECE0101960995D70113961C921E929C
:100A6000129720914E022C3731F48FEF9FEFF70150
:100A7000958384837AC0D70114968D919C911597A4
:100A8000892B19F42093580270C0F7018481958155
:100A9000019739F480914F021092590280935A02C3
:100AA00064C0D70114968D919C911597029771F4AB
:100AB0002091500230E08091590290915A02822B8D
:100AC000932B90935A02809359024FC0F70184816F
:100AD00095810397B1F41091510280915902909140
:100AE0005A020E94AF03181739F082E090E0D70154
:100AF00013969C938E93129710925A021092590259
:100B000034C0F70184819581049779F58FEF9FEFC9
:100B100095838483828193818230910519F4938334
:100B2000828323C0809152028C3741F083E090E0B1
:100B3000D70113969C938E93129717C085E090E08F
:100B4000F7019383828380819181059771F48FE30C
:100B500090E0E80EF91ED701ED91FC9181EC9FEF3A
:100B6000E80EF91E8EE492E00995D7018D919C91D3
:100B700011970A97A9F414968D919C911597DD967B
:100B80002D913C91DE9797FD08C01496ED91FC9154
:100B90001597E25BFD4F808101C08CE7F901099553
:100BA000F701848195810196958384830F900F903E
:100BB0000F90CF91DF911F910F91FF90EF900895CB
:100BC000EF92FF920F931F93DF93CF9300D00F927A
:100BD000CDB7DEB78C017B01DC011A968D919C911B
:100BE0001B97019719F020E030E01CC00F5B1F4FEE
:100BF000D801ED91FC9101541040CE010196099568
:100C00008981F70182839A8180E02B8130E0822BF9
:100C1000932B91838083D8011B961C921E921A9766
:100C200021E030E0C9010F900F900F90CF91DF913C
:100C30001F910F91FF90EF9008951F920F920FB6A2
:100C40000F9211240F900FBE0F901F9018958FEFE9
:100C500084B990EF97B982E88AB915B88FE088B95E
:100C60009BB9579AF8942DE088E190E00FB6F8947C
:100C7000A895809360000FBE209360000E948801B9
:100C80008FE190E00E9406080E945A02789486E361
:100C900092E060E070E040E050E00E94E70187E908
:100CA00092E00E94E70387E992E00E948B02A895F8
:100CB000EECF2F923F924F925F926F927F928F92E0
:100CC0009F92AF92BF92CF92DF92EF92FF920F93DB
:100CD0001F93DF93CF9300D000D0CDB7DEB71C01B8
:100CE000809136028E3FA1F42C3449F460930601C2
:100CF0001092070140930401109205010BC060930C
:100D000002011092030140930001109201010BC0F7
:100D10002C3449F4A0900601B090070140900401E2
:100D20005090050108C0A0900201B09003014090CE
:100D3000000150900101862E99248A189B08C42E28
:100D4000DD24C418D5088114910481F4D7FE05C0B0
:100D500080EC9AECA6E9B0E404C086E59EE0A9EC3C
:100D6000BFE389839A83AB83BC8329C0C114D104B8
:100D700061F497FC05C080E090E0A0E0B0E0F1CF26
:100D800086E59EE0A9E4B0E4ECCFB601882777FDC4
:100D90008095982F0E94F40E7B018C01B401882766
:100DA00077FD8095982F0E94F40E9B01AC01C8013D
:100DB000B7010E94451269837A838B839C83C401A7
:100DC00097FE04C088279927881999094E970CF433
:100DD0005AC09FE1891691043CF1A2EEBFEF8A0E42
:100DE0009B1EB401882777FD8095982F0E94F40EF2
:100DF00020E030E048EC52E40E94EE0C7B018C01D4
:100E0000EEE1F0E0AE0EBF1EB501882777FD8095BC
:100E1000982F0E94F40E9B01AC0160E070E08FE718
:100E200093E40E94900C26C0F2EE8F16FFEF9F060F
:100E300054F58EE190E0880E991E66277727681991
:100E40007909882777FD8095982F0E94F40E20E07D
:100E500030E048EC52E40E94EE0C7B018C01A2EEE3
:100E6000BFEFAA0EBB1EB501882777FD8095982F8E
:100E70000E94F40E9B01AC01C801B7010E94E80D6D
:100E80003B014C010AC00F2EF0E06F2EF0E07F2EE8
:100E9000F0E08F2EF0E09F2EF02DC601D7FE04C0AB
:100EA000882799278C199D094E970CF45AC0BFE1E9
:100EB000CB16D1043CF1E2EEFFEFCE0EDF1EB60101
:100EC000882777FD8095982F0E94F40E20E030E06F
:100ED00048EC52E40E94EE0C7B018C018EE190E024
:100EE000480E591EB201882777FD8095982F0E94E1
:100EF000F40E9B01AC0160E070E08FE793E40E9488
:100F0000900C26C092EEC9169FEFD90654F5AEE1BB
:100F1000B0E0CA0EDB1E662777276C197D0988278B
:100F200077FD8095982F0E94F40E20E030E048EC89
:100F300052E40E94EE0C7B018C01E2EEFFEF4E0EBC
:100F40005F1EB201882777FD8095982F0E94F40ECE
:100F50009B01AC01C801B7010E94E80D5B016C0167
:100F60000AC00F2EF0E0AF2EF0E0BF2EF0E0CF2E43
:100F7000F0E0DF2EF02DC601B5010E94520F7B017B
:100F80008C01C401B3010E94520F6E157F051CF045
:100F9000D401C30102C0D601C501D82EE92E8D01AE
:100FA000682F792FCD0120E030E048EC52E40E9418
:100FB000940E181624F4DD24EE2408EC12E48D2D92
:100FC0009E2DD801F10180839183A283B38389810F
:100FD0009A81AB81BC8184839583A683B7830F906C
:100FE0000F900F900F90CF91DF911F910F91FF9075
:100FF000EF90DF90CF90BF90AF909F908F907F90B9
:101000006F905F904F903F902F900895A5ECB0E0C7
:101010009C93E4ECF0E0808326E02093C20028E972
:101020002093C100549A9C9380830895982F8091B7
:10103000C00085FFFCCF9093C60008958091C0004A
:1010400087FFFCCF8091C6000895FC0107C0809106
:10105000C00085FFFCCF9093C60031969081992304
:10106000B1F70895FF920F931F93CF93DF939C01E5
:101070008A0197FF07C0EB018DE289933095219596
:101080003F4F03C0009721F0EB01FC2E4D2F07C00E
:10109000CB01EB0180E38993862FDC0115C0C901E8
:1010A000B8010E949B11FC01E85FFE4F808189938B
:1010B000C901B8010E949B119B016115710579F767
:1010C0008F2D942F9C01D9011882FE0104C09C91A0
:1010D00080818D9390833197AE17BF07C0F3DF9166
:1010E000CF911F910F91FF9008950F931F93DF935E
:1010F000CF93CDB7DEB760970FB6F894DEBF0FBEC3
:10110000CDBF8E010F5F1F4FB8014AE050E00E9433
:101110003208C8010E9425088091C00085FFFCCFDD
:101120008AE08093C6008CE49DE10197F1F7609618
:101130000FB6F894DEBF0FBECDBFCF91DF911F91E8
:101140000F910895DF93CF93CDB7DEB7FC011686DC
:101150001786108A118A12861386148615861186C0
:1011600010861782168215821482138212821182CF
:101170001082CF91DF9108952F923F924F925F920C
:101180006F927F928F929F92AF92BF92CF92DF9297
:10119000EF92FF920F931F93DF93CF93CDB7DEB7FC
:1011A000A8970FB6F894DEBF0FBECDBF8D8A9E8A7A
:1011B000AF8AB88EC98EDA8EEB8EFC8E0D8F1E8FA5
:1011C0002F8F38A349A35AA36BA37CA38DA39EA3FF
:1011D0006F8D78A189A19AA14BA05CA06DA07EA083
:1011E0002D8C3E8C2D893E8938A72FA3FE01319688
:1011F00040E29E012B5E3F4F4193E217F307E1F778
:10120000611571058105910541F07B018C0123E198
:10121000C22ED12C882499240BC080E38C8B92E1C0
:10122000C92ED12C81E0882E912CEE24FF24870139
:101230005E010894A11CB11CAC0CBD1C1CC0C801F3
:10124000B701A30192010E94AE11605DF5016083B8
:101250000894C108D108C801B701A30192010E94F6
:10126000AE11C901DA017C018D010894811C911C29
:101270000894A108B108E114F10401051105F9F67B
:101280002114310429F0CC0EDD1E8DE2F60181839C
:10129000C401820D931D2FA138A5821793070CF46A
:1012A000C90124E130E0281B390BFE013196E20F21
:1012B000F31F0AC090818091C00085FFFCCF9093FE
:1012C000C6002F5F3F4F3196243131059CF3A8961D
:1012D0000FB6F894DEBF0FBECDBFCF91DF911F9147
:1012E0000F91FF90EF90DF90CF90BF90AF909F90C5
:1012F0008F907F906F905F904F903F902F900895C8
:101300002F923F924F925F926F927F928F929F9215
:10131000AF92BF92CF92DF92EF92FF920F931F9303
:10132000DF93CF93CDB7DEB7AC970FB6F894DEBF9F
:101330000FBECDBF91E4292E312C2C0E3D1EF101A4
:10134000A191B1911F012CC09923D9F48AE090E0BA
:10135000AC960FB6F894DEBF0FBECDBFCF91DF9134
:101360001F910F91FF90EF90DF90CF90BF90AF90C3
:101370009F908F907F906F905F904F903F902F90B5
:1013800008959A3039F48091C00085FFFCCFFDE0CC
:10139000F093C6008091C00085FFFCCF9093C600FB
:1013A0009D91953289F619A21AA21BA21CA21D8E2C
:1013B0001E8E1F8E18A21C8E1B8E1A8E198E188ED2
:1013C0001F8A1E8A1D8A1C8A1B8A9E012F5F3F4F1F
:1013D000AE014D5E5F4F82E1FA010190AF01F9016C
:1013E00001929F018150C1F7F984EA840F81188529
:1013F00060E070E004C061E070E0AFA1B8A5FD015D
:101400004191F8A7EFA3842F80538A30E8F4FB01C1
:10141000EE0FFF1F21E030E02C0F3D1FE20FF31F06
:1014200050E040535040808191819C01B3E0220FF5
:10143000331FBA95E1F7880F991F280F391F420F04
:10144000531F51834083D9CF4E3229F4672B99F231
:1014500018870F83A5CF4C3619F401E010E0CDCFEB
:1014600018870F83433609F4F4C0443630F444340B
:1014700069F0463409F094CF48C0463609F445C0B7
:10148000433709F4F5C0443609F08ACF8AE090E08A
:10149000A0E0B0E08F87988BA98BBA8BD1018D919A
:1014A0009C91AC01662757FD6095762F77FD05C0AE
:1014B0008F2D9E2D9C01C90109C070956095509596
:1014C00041955F4F6F4F7F4F81E090E0E2E0F0E0A9
:1014D0002E0E3F1E242F4B875C876D877E87082F3B
:1014E0009A87898789809A80AB80BC80CD80DE8096
:1014F000EF80F8841A853C854D855E856F857889F7
:1015000089899A890E94BC08B0C08AE090E0A0E076
:10151000B0E08F87988BA98BBA8BD1014D905D90ED
:101520006D907C90C301B20120E030E040E050E0DB
:101530000E94C40E87FD05C08F2D9E2D9C01790150
:1015400007C077FA709477F8709431E0E32EF12CAD
:10155000EB81FC81FCA7EBA79F0120953095898149
:101560009A81820F931F882E9A838983C301B201C7
:101570000E94520F262F6B877C878D879E870E2DAA
:10158000FA86E9869A80AB80BC80CD80DE80EF80D1
:10159000F8841A853C854D855E856F8578898989B3
:1015A0009A890E94BC088091C00085FFFCCFFEE2B2
:1015B000F093C60021E030E03A8329838BA59CA5F7
:1015C000892B21F4A6E0B0E0BC83AB83E4E0F0E03B
:1015D0002E0E3F1E2B813C813EA32DA31AA619A6D9
:1015E00030C0C301B20120E030E040E251E40E948B
:1015F000EE0C2B013C010E94520F2AE030E040E04B
:1016000050E00E94D011262F6B877C878D879E87A4
:101610001A86198689809A80AB80BC80CD80DE8056
:10162000EF80F88409851A85372FAC016F8578899A
:1016300089899A890E94BC0889A59AA501969AA7CA
:1016400089A7A9A5BAA5EDA1FEA1AE17BF074CF2C7
:101650000CC0D1019C918091C00085FFFCCFE2E0DD
:10166000F0E02E0E3F1E9093C600AFA1B8A598CE15
:1016700081010E5F1F4FD1018D919C910E94250821
:10168000AFA1B8A518018CCEA0E0B0E0EAE4FBE081
:101690000C94FF11DC012B01FA019C91923008F4AB
:1016A00039C1EB018881823008F433C1943069F488
:1016B000843009F02FC111969C9111978981981758
:1016C00009F428C1ADE2B1E025C1843009F421C19B
:1016D0008230A9F4923009F01DC19A01AD0188E071
:1016E000EA010990AE01E90109929E018150C1F71A
:1016F000E201898111969C918923818308C19230EE
:1017000009F407C112962D903C901397EB018A8142
:101710009B811496AD90BD90CD90DC901797EC8096
:10172000FD800E811F819101281B390BB90137FF04
:1017300004C066277727621B730B603271050CF0BB
:1017400061C0121613066CF537014801062E04C05D
:1017500096948794779467940A94D2F721E030E0C6
:1017600040E050E004C0220F331F441F551F6A950C
:10177000D2F721503040404050402E213F2140239D
:101780005123211531054105510521F021E030E0BB
:1017900040E050E079018A01E628F7280829192954
:1017A0003CC0232BD1F1260E371E35014601062EF3
:1017B00004C096948794779467940A94D2F721E0B2
:1017C00030E040E050E004C0220F331F441F551F9B
:1017D0006A95D2F721503040404050402A213B21A9
:1017E0004C215D21211531054105510521F021E0F4
:1017F00030E040E050E059016A01A628B728C82827
:10180000D9280BC0821593052CF01C01AA24BB24F7
:10181000650103C0EE24FF24870111969C91D2013B
:1018200011968C91981709F445C0992339F0A801B5
:1018300097012A193B094C095D0906C0A6019501CB
:101840002E193F09400B510B57FD08C011823382FE
:10185000228224833583468357831DC081E08183A0
:101860003382228288279927DC01821B930BA40BE9
:10187000B50B84839583A683B7830DC0220F331FD6
:10188000441F551F24833583468357838281938168
:101890000197938382832481358146815781DA01C0
:1018A000C9010197A109B1098F5F9F4FAF4FBF4396
:1018B00028F30BC0918333822282EA0CFB1C0C1D9F
:1018C0001D1DE482F5820683178383E080832481D3
:1018D00035814681578157FF1AC0C901AA2797FD54
:1018E000A095BA2F81709070A070B07056954795F2
:1018F00037952795822B932BA42BB52B8483958327
:10190000A683B78382819381019693838283DF01CB
:1019100001C0D201CD01CDB7DEB7E2E10C941B12BC
:10192000A0E2B0E0E6E9FCE00C940B1269837A8354
:101930008B839C832D833E834F835887E9E0EE2E73
:10194000F12CEC0EFD1ECE010196B7010E94CA10CB
:101950008E010F5E1F4FCE010596B8010E94CA107E
:101960008A8991E089278A8BC701B801AE01475E59
:101970005F4F0E94440B0E94F50FA096E6E00C9486
:101980002712A0E2B0E0E7ECFCE00C940B126983B4
:101990007A838B839C832D833E834F835887F9E022
:1019A000EF2EF12CEC0EFD1ECE010196B7010E9428
:1019B000CA108E010F5E1F4FCE010596B8010E941E
:1019C000CA10C701B801AE01475E5F4F0E94440BC9
:1019D0000E94F50FA096E6E00C942712A0E2B0E07A
:1019E000E4EFFCE00C94FF1169837A838B839C8382
:1019F0002D833E834F835887CE010196BE01675FDA
:101A00007F4F0E94CA10CE010596BE016F5E7F4FC8
:101A10000E94CA109985923088F089898230C8F076
:101A2000943019F4823051F404C0843029F4923097
:101A300081F48DE291E0C6C0923049F420E09A85AD
:101A40008A89981321E02A87CE010996BBC082308B
:101A500049F420E09A858A89981321E02A8BCE01E7
:101A60004196B0C02D843E844F8458886D887E880E
:101A70008F88988CEE24FF248701AA24BB2465015B
:101A800040E050E060E070E0E0E0F0E0C101817033
:101A90009070892BE9F0E60CF71C081D191D9A01BE
:101AA000AB012A0D3B1D4C1D5D1D80E090E0A0E0C8
:101AB000B0E0E614F7040805190520F481E090E091
:101AC000A0E0B0E0BA01A901480F591F6A1F7B1FAF
:101AD000AA0CBB1CCC1CDD1C97FE08C081E090E06A
:101AE000A0E0B0E0A82AB92ACA2ADB2A3196E0325F
:101AF000F10549F0660C771C881C991C5694479494
:101B000037942794C3CFFA85EA892B893C898B8542
:101B10009C85280F391F2E5F3F4F17C0CA01817067
:101B20009070892B61F016950795F794E79480E003
:101B300090E0A0E0B0E8E82AF92A0A2B1B2B769562
:101B40006795579547952F5F3F4F77FDE7CF0CC0BF
:101B5000440F551F661F771F17FD4160EE0CFF1CD9
:101B6000001F111F21503040403090E0590790E095
:101B7000690790E4790760F32B8F3C8FDB01CA0182
:101B80008F779070A070B07080349105A105B10579
:101B900061F447FD0AC0E114F1040105110529F0C3
:101BA000405C5F4F6F4F7F4F40781A8EFE1711F0E9
:101BB00081E08A8F4D8F5E8F6F8F78A383E0898F4E
:101BC000CE0149960E94F50FA096E2E10C941B12FB
:101BD000A8E1B0E0EEEEFDE00C94071269837A8391
:101BE0008B839C832D833E834F835887B9E0EB2EF4
:101BF000F12CEC0EFD1ECE010196B7010E94CA1019
:101C00008E010F5E1F4FCE010596B8010E94CA10CB
:101C10002985223008F47EC03989323010F4B801A9
:101C20007CC08A859A8989278A87243011F02230DE
:101C300031F4231709F06EC06DE271E06EC03430EC
:101C400039F41D861E861F86188A1C861B8604C0D2
:101C5000323021F484E08987B7015FC02B853C8551
:101C60008B899C89281B390B3C872B87ED84FE844C
:101C70000F851889AD88BE88CF88D88CEA14FB04FC
:101C80000C051D0540F4EE0CFF1C001F111F215018
:101C900030403C872B8720E030E040E050E080E09F
:101CA00090E0A0E0B0E460E070E0EA14FB040C0512
:101CB0001D0540F0282B392B4A2B5B2BEA18FB081B
:101CC0000C091D09B695A79597958795EE0CFF1CF5
:101CD000001F111F6F5F7F4F6F31710531F7DA0100
:101CE000C9018F779070A070B07080349105A10504
:101CF000B10561F427FD0AC0E114F10401051105E5
:101D000029F0205C3F4F4F4F5F4F20782D873E8753
:101D10004F87588BBE01675F7F4FCB010E94F50F45
:101D20006896EAE00C942312A8E1B0E0EAE9FEE04C
:101D30000C940B1269837A838B839C832D833E835F
:101D40004F83588789E0E82EF12CEC0EFD1ECE0162
:101D50000196B7010E94CA108E010F5E1F4FCE017F
:101D60000596B8010E94CA108985823040F08989A1
:101D7000823028F0C701B8010E94421101C08FEFE4
:101D80006896E6E00C942712A8E1B0E0EAECFEE0E9
:101D90000C940B1269837A838B839C832D833E83FF
:101DA0004F83588789E0E82EF12CEC0EFD1ECE0102
:101DB0000196B7010E94CA108E010F5E1F4FCE011F
:101DC0000596B8010E94CA108985823040F0898941
:101DD000823028F0C701B8010E94421101C081E0A1
:101DE0006896E6E00C942712A8E0B0E0EAEFFEE087
:101DF0000C9408129B01AC0183E08983DA01C901CC
:101E00008827B7FD83959927AA27BB27B82E2115C8
:101E100031054105510519F482E089833AC08823D0
:101E2000A9F0203080E0380780E0480780E85807B4
:101E300029F460E070E080E09FEC30C0EE24FF24E5
:101E40008701E21AF30A040B150B02C079018A011B
:101E50008EE1C82ED12CDC82CB82ED82FE820F83F4
:101E60001887C801B7010E94A60F01971816190616
:101E700084F4082E04C0EE0CFF1C001F111F0A94EE
:101E8000D2F7ED82FE820F831887C81AD90ADC8246
:101E9000CB82BA82CE0101960E94F50F2896E9E026
:101EA0000C942412ACE0B0E0E8E5FFE00C940F12D3
:101EB00069837A838B839C83CE010196BE016B5F1D
:101EC0007F4F0E94CA108D81823061F1823050F1C3
:101ED000843021F48E81882351F12EC02F813885E2
:101EE00037FD20C06E812F3131051CF06623F9F0DB
:101EF00023C08EE190E0821B930B29853A854B85A8
:101F00005C8504C056954795379527958A95D2F7F5
:101F10006623B1F050954095309521953F4F4F4F36
:101F20005F4F0EC020E030E040E050E009C02FEFEE
:101F30003FEF4FEF5FE704C020E030E040E050E8C3
:101F4000B901CA012C96E2E00C942B12EF92FF9299
:101F50000F931F937B018C0180E0E81680E0F80668
:101F600081E0080780E0180788F48FEFE816F10495
:101F70000105110531F028F088E090E0A0E0B0E024
:101F800017C080E090E0A0E0B0E012C080E0E8166A
:101F900080E0F80680E0080781E0180728F088E173
:101FA00090E0A0E0B0E004C080E190E0A0E0B0E00C
:101FB00020E230E040E050E0281B390B4A0B5B0B7D
:101FC00004C016950795F794E7948A95D2F7F70120
:101FD000EB5CFE4F8081281B310941095109C90181
:101FE0001F910F91FF90EF900895DF92EF92FF9273
:101FF0000F931F93FC01E480F58006811781D18047
:102000008081823048F480E090E0A0E1B0E0E82AEE
:10201000F92A0A2B1B2BA5C0843009F49FC08230FB
:1020200021F4EE24FF24870105C0E114F104010529
:10203000110519F4E0E0F0E096C0628173819FEF32
:10204000623879070CF05BC022E83FEF261B370BA4
:102050002A3131052CF020E030E040E050E02AC089
:10206000B801A701022E04C076956795579547954C
:102070000A94D2F781E090E0A0E0B0E004C0880FBD
:10208000991FAA1FBB1F2A95D2F70197A109B10971
:102090008E219F21A023B1230097A105B10521F036
:1020A00081E090E0A0E0B0E09A01AB01282B392B51
:1020B0004A2B5B2BDA01C9018F779070A070B0704A
:1020C00080349105A105B10539F427FF09C0205CD2
:1020D0003F4F4F4F5F4F04C0215C3F4F4F4F5F4F0B
:1020E000E0E0F0E02030A0E03A07A0E04A07A0E4FA
:1020F0005A0710F0E1E0F0E079018A0127C060386A
:10210000710564F5FB01E158FF4FD801C7018F77D6
:102110009070A070B07080349105A105B10539F4BC
:10212000E7FE0DC080E490E0A0E0B0E004C08FE3E3
:1021300090E0A0E0B0E0E80EF91E0A1F1B1F17FF99
:1021400005C016950795F794E794319687E01695A4
:102150000795F794E7948A95D1F705C0EE24FF24FC
:102160008701EFEFF0E06E2F679566276795902F58
:102170009F77D794DD24D7948E2F8695492F462BB1
:10218000582F5D29B701CA011F910F91FF90EF9061
:10219000DF900895FC01DB01408151812281622F93
:1021A0006F7770E0221F2227221F9381892F880FCB
:1021B000822B282F30E0991F9927991F11969C9305
:1021C000119721153105A9F54115510561057105D5
:1021D00011F482E037C082E89FEF13969C938E93B0
:1021E00012979A01AB0167E0220F331F441F551F5E
:1021F0006A95D1F783E08C930DC0220F331F441FE3
:10220000551F12968D919C911397019713969C934D
:102210008E931297203080E0380780E0480780E4F2
:10222000580758F314962D933D934D935C9317974D
:1022300008952F3F310579F4411551056105710568
:1022400019F484E08C93089564FF03C081E08C93BB
:1022500012C01C9210C02F57304013963C932E93FF
:10226000129783E08C9387E0440F551F661F771FFA
:102270008A95D1F7706414964D935D936D937C931A
:10228000179708951F93DC01FB019C91923008F48D
:1022900047C08081823008F443C0943051F41196D5
:1022A0001C91843099F58181682F70E0611B710960
:1022B0003FC0843021F0923031F48230B9F1818115
:1022C000882389F12DC011961C9111978230F1F06D
:1022D00081811817D9F412962D913C911397828120
:1022E00093818217930794F028173907BCF014964E
:1022F0008D919D910D90BC91A02D248135814681B9
:102300005781281739074A075B0718F4112341F052
:102310000AC082179307A407B50740F4112319F0E8
:1023200061E070E005C06FEF7FEF02C060E070E039
:10233000CB011F91089597FB092E07260AD077FD40
:1023400004D049D006D000201AF4709561957F4FD3
:102350000895F6F7909581959F4F0895A1E21A2E62
:10236000AA1BBB1BFD010DC0AA1FBB1FEE1FFF1F39
:10237000A217B307E407F50720F0A21BB30BE40B89
:10238000F50B661F771F881F991F1A9469F76095D0
:102390007095809590959B01AC01BD01CF0108958A
:1023A00097FB092E05260ED057FD04D0D7DF0AD0A3
:1023B000001C38F450954095309521953F4F4F4F74
:1023C0005F4F0895F6F790958095709561957F4FD2
:1023D0008F4F9F4F0895AA1BBB1B51E107C0AA1F37
:1023E000BB1FA617B70710F0A61BB70B881F991FB6
:1023F0005A95A9F780959095BC01CD0108952F922B
:102400003F924F925F926F927F928F929F92AF9284
:10241000BF92CF92DF92EF92FF920F931F93CF93D1
:10242000DF93CDB7DEB7CA1BDB0B0FB6F894DEBF68
:102430000FBECDBF09942A88398848885F846E848E
:102440007D848C849B84AA84B984C884DF80EE80D8
:10245000FD800C811B81AA81B981CE0FD11D0FB6E1
:10246000F894DEBF0FBECDBFED010895F5D058F052
:1024700080E891E009F49EEFF6D028F040E851E0C2
:1024800059F45EEF09C0C0C028C1E92FE07803D13C
:1024900068F3092E052AC1F326173707480759079D
:1024A00038F00E2E07F8E02569F0E025E0640AC058
:1024B000EF6307F8009407FADB01B9019D01DC0125
:1024C000CA01AD01EF9341D0D5D00AD05F91552319
:1024D00031F02BED3FE049E450FD49EC52CA08953C
:1024E000DF93DD27B92FBF7740E85FE316161706A5
:1024F00048075B0710F4D92FF7D09F938F937F93F2
:102500006F935AD1E8E6F0E082D0B4D02F913F919A
:102510004F915F91FAD0DD2349F09058A2EA2AED5D
:102520003FE049EC5FE3D0785D2756D1DF91A2C050
:102530009AD040F091D030F021F45F3F19F05EC0A6
:102540005111CCC061C0A7D098F39923C9F355238A
:10255000B1F3951B550BBB27AA2762177307840796
:1025600038F09F5F5F4F220F331F441FAA1FA9F34C
:1025700033D00E2E3AF0E0E830D091505040E6953E
:10258000001CCAF729D0FE2F27D0660F771F881F9F
:10259000BB1F261737074807AB07B0E809F0BB0B8E
:1025A000802DBF01FF2793585F4F2AF09E3F5105B2
:1025B00068F024C093C05F3FECF3983EDCF386954F
:1025C00077956795B795F7959F5FC9F7880F911D28
:1025D0009695879597F90895E1E0660F771F881F14
:1025E000BB1F621773078407BA0720F0621B730BC7
:1025F000840BBA0BEE1F88F7E095089597F99F6753
:1026000080E870E060E008959FEF80EC0895DF932C
:10261000CF931F930F93FF92EF92DF927B018C0178
:10262000689405C0DA2EEF0170D0FE01E894A59100
:102630002591359145915591AEF3EF01CDD0FE0135
:102640009701A801DA9479F7DF90EF90FF900F914E
:102650001F91CF91DF91089500240A941616170652
:1026600018060906089500240A9412161306140683
:1026700005060895092E0394000C11F4882352F0E6
:10268000BB0F40F4BF2B11F460FF04C06F5F7F4F9E
:102690008F4F9F4F089557FD9058440F551F59F085
:1026A0005F3F71F04795880F97FB991F61F09F3F3F
:1026B00079F087950895121613061406551FF2CF68
:1026C0004695F1DF08C0161617061806991FF1CFB8
:1026D00086957105610508940895E894BB276627DF
:1026E0007727CB0197F908959B01AC0160E070E07A
:1026F00080E89FE36DCAB0DF28F0B5DF18F09523BE
:1027000009F07CCF81CF1124E9CFC5DFA0F3959FDD
:10271000D1F3950F50E0551F629FF001729FBB27C8
:10272000F00DB11D639FAA27F00DB11DAA1F649F74
:102730006627B00DA11D661F829F2227B00DA11D27
:10274000621F739FB00DA11D621F839FA00D611DAD
:10275000221F749F3327A00D611D231F849F600DCE
:10276000211D822F762F6A2F11249F5750408AF007
:10277000E1F088234AF0EE0FFF1FBB1F661F771F93
:10278000881F91505040A9F79E3F510570F036CFF9
:10279000A5CF5F3FECF3983EDCF386957795679580
:1027A000B795F795E7959F5FC1F7FE2B880F911DB1
:1027B0009695879597F908959B01AC010FC94CDF59
:1027C00030F051DF20F031F49F3F11F41EF41CCFA4
:1027D0000EF4E095E7FB12CFE92F5DDF80F3BA1727
:1027E000620773078407950718F071F49EF575CF9B
:1027F0000EF4E0950B2EBA2FA02D0B01B90190011C
:102800000C01CA01A0011124FF27591B99F0593F5F
:1028100050F4503E68F11A16F040A22F232F342FA7
:102820004427585FF3CF469537952795A795F040F5
:102830005395C9F77EF41F16BA0B620B730B840B0A
:10284000BAF09150A1F0FF0FBB1F661F771F881FC2
:10285000C2F70EC0BA0F621F731F841F48F487951A
:1028600077956795B795F7959E3F08F0B3CF939509
:10287000880F08F09927EE0F979587950895F8949B
:10288000FFCF80008000800080003031323334354B
:10289000363738396162636465666768696A6B6C8C
:1028A0006D6E6F707172737475767778797A0000D7
:1028B0000000000000000000010202030303030403
:1028C00004040404040404050505050505050505BF
:1028D000050505050505050606060606060606069F
:1028E0000606060606060606060606060606060688
:1028F000060606060606060707070707070707076F
:102900000707070707070707070707070707070757
:102910000707070707070707070707070707070747
:102920000707070707070707070707070707070737
:10293000070707070707070808080808080808081E
:102940000808080808080808080808080808080807
:1029500008080808080808080808080808080808F7
:1029600008080808080808080808080808080808E7
:1029700008080808080808080808080808080808D7
:1029800008080808080808080808080808080808C7
:1029900008080808080808080808080808080808B7
:1029A00008080808080808080808080808080808A7
:1029B0000808080808080800FFFFFFFFFFFFFFFFE7
:1029C000FFFFFFFFFFFFFFFFFFFFFFFFFFFFFFFF17
:1029D000FFFFFFFFFFFFFFFFFFFFFFFFFFFFFFFF07
:1029E000FFFFFFFFFFFFFFFFFFFFFFFFFFFFFFFFF7
:1029F000FFFFFFFFFFFFFFFFFFFFFFFFFFFFFFFFE7
:00000001FF
