:1000000016C1000045C1000043C1000041C100000D
:100010003FC100003DC100003BC1000039C10000EC
:1000200037C1000035C1000033C1000031C10000FC
:100030002FC100002DC100002BC1000029C100000C
:1000400027C1000025C1000023C1000021C100001C
:100050001FC100001DC100001BC10000E8C5000059
:1000600017C100000C949A090C94D00911C100002A
:100070000FC100000DC100000BC1000009C100004C
:1000800007C1000005C1000003C1000001C100005C
:10009000FFC00000FDC00000FBC00000BDC30000A9
:1000A000F7C00000F5C00000F3C00000F1C0000080
:1000B000EFC00000EDC00000EBC00000E9C0000090
:1000C000E7C00000E5C00000E3C00000E1C00000A0
:1000D000DFC00000DDC00000DBC00000D9C00000B0
:1000E000D7C000005A075D074C0750075607940712
:1000F000610765076B076F07730779077D0781073E
:10010000940787078B078F0700000A0B02090C0D65
:100110000E080703040100000000000000000000BA
:1001200000000000000000000000000000000000CF
:10013000000000001211100000000000000000008C
:1001400000000000000000000000000000000102AC
:1001500010202008081020401020408002010201D9
:100160000804020101020408102040808040201091
:1001700008040201800402018040201008040201EA
:100180000804020101020408102040800102040852
:10019000102040800505050507050808080802022B
:1001A00002020A0A08080404040401010101010111
:1001B00001010303030303030303040707070C0CF4
:1001C0000C0C0C0C0C0C02020202060606060606BB
:1001D00006060B0B0B0B0B0B0B0B00002000230078
:1001E000260029002C002F0032000001000003012E
:1001F0000601090100002200250028002B002E0026
:100200003100340002010000050108010B0100006B
:100210002100240027002A002D00300033000101B6
:100220000000040107010A0106022503020A112445
:100230001FBECFEFD1E2DEBFCDBF00E00CBF12E0AA
:10024000A0E0B2E0EEEAFBE100E00BBF02C00790E5
:100250000D92A636B107D9F723E0A6E6B2E001C0B9
:100260001D92AE3CB207E1F712E0CEE2D2E000E030
:1002700006C022970109FE010BBF0E94D10DC832B2
:10028000D10780E00807A9F70E94460A0C94D50D13
:10029000B7CE26E040E855E260E070E081E393E00D
:1002A000E9D76CE172E081E393E00E949B0A62E08F
:1002B0008EE13BD662E080E238D662E082E235D65B
:1002C00062E084E232D662E086E22FD687E692E0F0
:1002D0003ED440E050E060E772E487E692E05DD40F
:1002E000A5C4CF92DF92EF92FF9280E0A6D5BC0129
:1002F000882777FD8095982F0E94670C20E030E0DA
:1003000041EE53E40E94460D20E030EC4FE754E408
:100310000E94CC0B20E030E046E153E40E94680BE1
:100320000E94340C6B017C018EE16DD64AE050E0F6
:10033000BC0181E393E00E943F0B80E264D64AE077
:1003400050E0BC0181E393E00E943F0B82E25BD668
:100350004AE050E0BC0181E393E00E943F0B84E25D
:1003600052D64AE050E0BC0181E393E00E943F0B8B
:1003700086E249D64AE050E0BC0181E393E00E9466
:100380003F0B63E372E081E393E00E94900A4AE04E
:1003900050E0B60181E393E00E943F0B63E372E01B
:1003A00081E393E00E94900A4AE050E06091660287
:1003B00081E393E00E94520B960140E050E060918F
:1003C000660287E692E060D364EF71E080E090E03F
:1003D0009BD426E930E040E050E06091660287E679
:1003E00092E052D364EF71E080E090E08DD4809190
:1003F00066028F5F883018F48093660202C0109204
:100400006602FF90EF90DF90CF90089560E487E65A
:1004100092E037C38091980290E020919902821B6C
:10042000910908952091990280919802281750F41B
:10043000E22FF0E0E656FD4F808190E02F5F2093A1
:10044000990208958FEF9FEF0895E09199028091AE
:100450009802E81730F4F0E0E656FD4F808190E016
:1004600008958FEF9FEF08950895CF92DF92EF9256
:10047000FF920F931F93CF93DF937C01CB018A01EF
:1004800020917402222389F0EB016B01C40ED51E6A
:10049000CC15DD0561F06991D701ED91FC910190DA
:1004A000F081E02DC7011995F3CF642F8CD1C801DD
:1004B000DF91CF911F910F91FF90EF90DF90CF9040
:1004C0000895CF93DF931F92CDB7DEB76983209154
:1004D00074022223D1F020917502203240F021E0F5
:1004E00030E0FC013383228380E090E014C08091EF
:1004F0007602E82FF0E0E958FD4F998190838F5FF5
:10050000809376028093750204C061E0CE0101966B
:100510005AD181E090E00F90DF91CF910895FC01D6
:100520001382128248EE53E060E070E0448355830A
:100530006683778389E392E09183808308951092A4
:10054000990210929802109276021092750280C061
:1005500081E0809374026093970210927602109269
:10056000750208950F93062F21E04091750267E709
:1005700072E080919702D0D01092760210927502AC
:10058000109274020F9108958F929F92AF92BF9232
:10059000CF92DF92EF92FF920F931F93CF93DF934F
:1005A000EC01F62ED42E48015901EE2009F1D0DFDE
:1005B0001E2D143008F013E01150B8F0E881F981D5
:1005C00028E0129FB0011124A501940104C05695A2
:1005D0004795379527956A95D2F7CA01B9010190D9
:1005E000F081E02DCE011995E7CF60E0CE01BADFB2
:1005F0004D2D413208F040E22C2D6AE972E08F2D3A
:1006000043D01092990280939802DF91CF911F916D
:100610000F91FF90EF90DF90CF90BF90AF909F90A1
:100620008F900895CF92EF920F931F93C22EE12CDB
:1006300000E010E09801A8DF1F910F91EF90CF909C
:10064000089521E0EFCF61E08DCF88E692E067CF9B
:100650001092270381E0809325031092240361E028
:1006600084E19CD461E085E199D4E9EBF0E08081FC
:100670008E7F808380818D7F808388E48093B80023
:1006800085E48093BC000895413208F043C0909106
:1006900027039111FCCF91E090932703209325032A
:1006A0002FEF2093BA021092FF02240F2093FE0234
:1006B0009093260390912603880F892B809326031D
:1006C00080912403813061F41092240380912603E9
:1006D0008093BB008091BC0083FDF8CF85EC01C006
:1006E00085EE8093BC00809127038130E1F38091F7
:1006F000FF02841710F44091FF0220E033E0FB0179
:10070000D9018A2F821B841718F48D918193F9CF18
:10071000842F089580E008950F93413208F04AC075
:10072000909127039111FCCF92E0909327030093BF
:1007300025039FEF9093BA021092FF024093FE02AE
:10074000FB0160E073E0DB019A2F961B941718F40D
:1007500091919D93F9CF1092260390912603880FD3
:10076000892B8093260380912403813061F41092B9
:100770002403809126038093BB008091BC0083FDFD
:10078000F8CF85EC01C085EE8093BC00222321F0D8
:10079000809127038230E1F38091BA028F3F61F0AC
:1007A0008091BA02803251F08091BA02803341F4D4
:1007B00083E007C081E005C080E003C082E001C0A3
:1007C00084E00F910895613298F42091270324303A
:1007D00089F46093DC02FC018EED92E0DC012A2FAB
:1007E000281B261718F421912D93F9CF80E0089546
:1007F00081E0089582E0089585ED8093BC008091AA
:10080000BC0084FDFCCF10922703089585EC8093F3
:10081000BC001092270308951F920F920FB60F92FB
:1008200011240BB60F922F933F934F935F936F93C7
:100830007F938F939F93AF93BF93EF93FF93809199
:10084000B900887F803609F49DC070F5883209F4BC
:100850005CC090F4803109F455C038F4882309F461
:10086000F3C0883009F44EC0F2C0883109F44DC09D
:10087000803209F45EC0EBC0803409F469C050F4E2
:10088000803309F456C0883309F0E1C08093BA027E
:10089000BDDFDDC0803509F44FC0883509F45DC087
:1008A000883409F0D4C0D2C0883909F4C3C0A8F490
:1008B000883709F467C038F4883609F463C0803794
:1008C00009F460C0C4C0883809F4B4C0803909F4A0
:1008D0005FC0803809F0BBC05BC0803B09F482C0B8
:1008E00038F4803A09F466C0883A09F47BC0AFC096
:1008F000803C09F4A3C0883C09F4A0C0883B09F4FB
:1009000086C0A5C08091260310C09091FF028091FF
:10091000FE02981770F5E091FF0281E08E0F809340
:10092000FF02F0E0E050FD4F80818093BB0085EC3A
:1009300082C08093BA028AC0E091FF0281E08E0FEC
:100940008093FF028091BB00F0E0E050FD4F808378
:100950009091FF028091FE026AC0E091FF0281E067
:100960008E0F8093FF028091BB00F0E0E050FD4FBE
:10097000808380912503811169C081E080932403E5
:1009800084EA5DC083E0809327031092BB02CFCF3F
:100990008091BB02803208F04DC0E091BB0281E043
:1009A0008E0F8093BB028091BB00F0E0E454FD4FBA
:1009B0008083BDCF2BDF8091BB02803230F4E09189
:1009C000BB02F0E0E454FD4F10826091BB0270E086
:1009D000E0912003F09121038CEB92E019951092A5
:1009E000BB0235C084E0809327031092DD02109291
:1009F000DC02E0912203F091230319958091DC023F
:100A0000811105C081E08093DC021092DE02E0914A
:100A1000DD0281E08E0F8093DD02F0E0E252FD4FB7
:100A200080818093BB009091DD028091DC02981759
:100A300008F47DCF85E88093BC0009C085EC8093E5
:100A4000BC001092270303C01092BA02D5DEFF91BA
:100A5000EF91BF91AF919F918F917F916F915F9136
:100A60004F913F912F910F900BBE0F900FBE0F90A3
:100A70001F901895DC01ED91FC910190F081E02D23
:100A80001994FC0160830895FF920F931F93CF93F5
:100A9000DF931F921F92CDB7DEB7162FF52E032FCF
:100AA000FC01608188E692E02A83498351DDE09170
:100AB0006802F091690284E0189FB00111246A5F16
:100AC0007F4F0190F081E02D88E692E019954981F1
:100AD000642F7F2D88E692E0CDDF6F2D70E088E6F1
:100AE00092E0C8DF2A81622F702F88E692E0C2DF91
:100AF000602F70E088E692E0BDDF88E692E00F901C
:100B00000F90DF91CF911F910F91FF909CCD1F937C
:100B1000CF93DF931F92CDB7DEB7162FFC01608114
:100B200088E692E0498314DD612F88E692E0C9DC13
:100B30004981642F88E692E0C4DC88E692E00F9059
:100B4000DF91CF911F917FCD40E060E0E0CFCF9368
:100B5000DF93EC0188E692E0F2DCCE01DF91CF91E9
:100B6000F3CF1F93CF93DF93EC01162F688188E6B4
:100B700092E0EEDC612F88E692E0A3DC88E692E06A
:100B800062DD41E0688188E692E05BDD88E692E024
:100B900049DCDF91CF911F910895CF92DF92EF92C0
:100BA000FF921F93CF93DF93EC01CB01BA0126E6AE
:100BB00036E646E65FE36AD79B01AC0160E27CEB78
:100BC0008EEB95E4E9D520E030E040E85FE37FD5A7
:100BD00020E030E040E05FE37BD5B4D66B017C01E0
:100BE00060E0CE01BEDF182F482F4F76406160E0F5
:100BF000CE018DDFC701B6013CD6462F6EEFCE0188
:100C000086DF412F60E0CE0182DF65E070E080E0AA
:100C100090E07AD0412F416A60E0CE01DF91CF9120
:100C20001F91FF90EF90DF90CF9071CF08951F92AA
:100C30000F920FB60F9211242F933F938F939F9390
:100C4000AF93BF938091290390912A03A0912B0326
:100C5000B0912C033091280323E0230F2D3720F48B
:100C60000196A11DB11D05C026E8230F0296A11D06
:100C7000B11D209328038093290390932A03A09306
:100C80002B03B0932C0380912D0390912E03A09100
:100C90002F03B09130030196A11DB11D80932D0348
:100CA00090932E03A0932F03B0933003BF91AF9185
:100CB0009F918F913F912F910F900FBE0F901F909A
:100CC00018953FB7F89480912D0390912E03A09131
:100CD0002F03B091300326B5A89B05C02F3F19F014
:100CE0000196A11DB11D3FBF6627782F892F9A2F2E
:100CF000620F711D811D911D42E0660F771F881FD5
:100D0000991F4A95D1F708958F929F92AF92BF9203
:100D1000CF92DF92EF92FF926B017C01D2DF4B0109
:100D20005C01C114D104E104F104E1F07FDFC9DF0B
:100D3000681979098A099B09683E73408105910504
:100D400080F321E0C21AD108E108F10888EE880E8C
:100D500083E0981EA11CB11CC114D104E104F1046C
:100D600031F7DFCFFF90EF90DF90CF90BF90AF9043
:100D70009F908F900895789484B5826084BD84B5E7
:100D8000816084BD85B5826085BD85B5816085BD86
:100D9000EEE6F0E0808181608083E1E8F0E010829F
:100DA000808182608083808181608083E0E8F0E0E0
:100DB000808181608083E1EBF0E0808184608083CA
:100DC000E0EBF0E0808181608083E1E9F0E0808108
:100DD00082608083808181608083E0E9F0E08081AF
:100DE00081608083E1EAF0E080818260808380819D
:100DF00081608083E0EAF0E0808181608083E1E2CD
:100E0000F1E0808182608083808181608083E0E284
:100E1000F1E0808181608083EAE7F0E08081846096
:100E200080838081826080838081816080838081F3
:100E3000806880831092C1000895863308F086533D
:100E400020917B00982F9870277F922B90937B00A6
:100E500087702091000290E4299F90011124822B39
:100E600080937C0080917A00806480937A008091E6
:100E70007A0086FDFCCF809178002091790090E087
:100E8000922B089590E0FC013197E231F10508F0D2
:100E90004BC0EE58FF4F7FC6809180008F7703C014
:100EA000809180008F7D80938000089580918000E4
:100EB000877FF9CF84B58F7702C084B58F7D84BDDD
:100EC00008958091B0008F7703C08091B0008F7D2E
:100ED0008093B0000895809190008F7707C0809133
:100EE00090008F7D03C080919000877F8093900059
:100EF00008958091A0008F7707C08091A0008F7D1A
:100F000003C08091A000877F8093A0000895809106
:100F100020018F7707C0809120018F7D03C08091D1
:100F20002001877F809320010895CF93DF9390E085
:100F3000FC01E25BFE4F2491FC01EC56FE4F8491D4
:100F4000882349F190E0880F991FFC01E25FFD4F73
:100F5000A591B4918C509E4FFC01C591D4919FB73F
:100F6000611108C0F8948C91209582238C9388811C
:100F700082230AC0623051F4F8948C91322F30955C
:100F800083238C938881822B888304C0F8948C916E
:100F9000822B8C939FBFDF91CF9108950F931F9366
:100FA000CF93DF931F92CDB7DEB7282F30E0F90142
:100FB000E85FFE4F8491F901E25BFE4F1491F90165
:100FC000EC56FE4F04910023C1F0882319F0698389
:100FD00059DF6981E02FF0E0EE0FFF1FEC50FE4F6C
:100FE000A591B4919FB7F8948C91611103C01095AD
:100FF000812301C0812B8C939FBF0F90DF91CF91F4
:101000001F910F910895CF93DF93282F30E0F901BE
:10101000E85FFE4F8491F901E25BFE4FD491F90144
:10102000EC56FE4FC491CC2389F081112BDFEC2FBD
:10103000F0E0EE0FFF1FE652FE4FA591B4912C9108
:101040002D2381E090E021F480E002C080E090E078
:10105000DF91CF910895FC01818D228D90E0805C1D
:101060009F4F821B91098F7399270895FC01918DE1
:10107000828D981731F0828DE80FF11D858D90E0FB
:1010800008958FEF9FEF0895FC01918D828D981741
:1010900061F0828DDF01A80FB11D5D968C91928D5C
:1010A0009F5F9F73928F90E008958FEF9FEF089559
:1010B00089EF99E0892B39F080E090E0892B19F0D5
:1010C00098D1811125C080E090E0892B41F080E02B
:1010D00090E0892B21F00E94000081111CC080E06B
:1010E00090E0892B41F080E090E0892B21F00E9474
:1010F0000000811113C080E090E0892BA1F080E016
:1011000090E0892B81F00E94000081110AC00895AF
:101110000E940000D8CF0E940000E1CF0E94000092
:10112000EACF0C9400000895FC01848DDF01A80F24
:10113000B11DA35ABF4F2C91848D90E001968F73FF
:101140009927848FA689B7892C93A089B1898C911E
:1011500080648C93938D848D981306C00288F389E4
:10116000E02D80818F7D80830895CF93DF93EC0104
:10117000888D8823C1F0EA89FB89808185FD05C0BF
:10118000A889B9898C9186FD0EC00FB607FCF5CFF2
:10119000808185FFF2CFA889B9898C9185FFEDCF39
:1011A000CE01C2DFE8CFDF91CF910895CF92DF92D9
:1011B000FF920F931F93CF93DF931F92CDB7DEB7AC
:1011C0006C0181E0D60158968C9358975B969C9160
:1011D0005B975C968C915C97981307C05096ED9145
:1011E000FC915197808185FD2DC0F601038D10E0A3
:1011F0000F5F1F4F0F731127F02EF601848DF81229
:1012000010C00FB607FCF9CFD6015096ED91FC91B6
:101210005197808185FFF1CFC601698385DF6981A0
:10122000ECCF838DE80FF11DE35AFF4F6083D601A9
:101230005B960C935B975296ED91FC91539780814E
:1012400080620CC0D6015696ED91FC915797608351
:101250005096ED91FC91519780818064808381E06C
:1012600090E00F90DF91CF911F910F91FF90DF9051
:10127000CF900895BF92CF92DF92EF92FF92CF93DB
:10128000DF93EC016A017B01B22EE889F98982E0E3
:101290008083411581EE58076105710599F060E082
:1012A00079E08DE390E0A701960153D421503109F4
:1012B000410951095695479537952795211580E1A4
:1012C000380790F0E889F989108260E874E88EE1C7
:1012D00090E0A70196013DD42150310941095109FF
:1012E0005695479537952795EC85FD853083EE8596
:1012F000FF852083188EEC89FD89B082EA89FB89FD
:10130000808180618083EA89FB8980818860808315
:10131000EA89FB89808180688083EA89FB898081F2
:101320008F7D8083DF91CF91FF90EF90DF90CF9002
:10133000BF9008951F920F920FB60F9211240BB613
:101340000F922F938F939F93EF93FF93E09141031D
:10135000F09142038081E0914703F091480382FDC0
:1013600012C0908180914A038F5F8F7320914B034D
:10137000821751F0E0914A03F0E0EF5CFC4F958F4B
:1013800080934A0301C08081FF91EF919F918F91DB
:101390002F910F900BBE0F900FBE0F901F901895BE
:1013A0001F920F920FB60F9211240BB60F922F932C
:1013B0003F934F935F936F937F938F939F93AF93DD
:1013C000BF93EF93FF9381E393E0AEDEFF91EF9144
:1013D000BF91AF919F918F917F916F915F914F914D
:1013E0003F912F910F900BBE0F900FBE0F901F904B
:1013F000189581E393E02FDE21E0892B09F420E0AA
:10140000822F0895109234031092330388EE93E0F4
:10141000A0E0B0E08093350390933603A0933703A8
:10142000B093380389E492E09093320380933103C0
:1014300085EC90E090933E0380933D0384EC90E034
:101440009093400380933F0380EC90E0909342039D
:101450008093410381EC90E0909344038093430395
:1014600082EC90E0909346038093450386EC90E0F5
:10147000909348038093470310924A0310924B03C2
:1014800010924C0310924D030895089574DCFDDF13
:101490000E944901C8E5D8E00E9471012097E1F35C
:1014A00007DEFACFCF92DF92EF92FF920F931F9356
:1014B000CF93DF937C016A01EB0100E010E00C1593
:1014C0001D0571F06991D701ED91FC910190F081BA
:1014D000E02DC7011995892B19F00F5F1F4FEFCF32
:1014E000C801DF91CF911F910F91FF90EF90DF9096
:1014F000CF9008956115710581F0DB010D900020FA
:10150000E9F7AD0141505109461B570BDC01ED9144
:10151000FC910280F381E02D199480E090E0089521
:10152000E9CFDC01ED91FC910190F081E02D19945F
:1015300065E572E0DFCF0F931F93CF93DF93EC014C
:10154000D9DF8C01CE01F4DF800F911FDF91CF91A5
:101550001F910F9108958F929F92AF92BF92DF9249
:10156000EF92FF920F931F93CF93DF93CDB7DEB728
:10157000A1970FB6F894DEBF0FBECDBF7C01F42F4C
:10158000D52ECB0119A2223008F42AE08E010F5D7E
:101590001F4F822E912CA12CB12C6F2F7D2DA501D8
:1015A0009401D7D2F22FD32ECA01015011096A300B
:1015B00014F4E0E301C0E7E3E60FD801EC93232B3A
:1015C000242B252B51F7B801C70194DFA1960FB644
:1015D000F894DEBF0FBECDBFDF91CF911F910F9169
:1015E000FF90EF90DF90BF90AF909F908F90089505
:1015F000CF92DF92EF92FF920F931F93CF93DF93DF
:10160000EC016A017B012115310579F4E881F9814A
:101610000190F081E02D642FDF91CF911F910F9108
:10162000FF90EF90DF90CF9019942A303105D9F4D4
:1016300077FF18C06DE275DF8C0144275527BA018A
:101640004C195D096E097F092AE0CE0184DF800F05
:10165000911FDF91CF911F910F91FF90EF90DF903D
:10166000CF9008952AE0B701A601CE01DF91CF9176
:101670001F910F91FF90EF90DF90CF906CCF9A0168
:10168000AB01662757FD6095762FB2CF2115310546
:1016900041F4DC01ED91FC910190F081E02D642F8B
:1016A000199459CF0F931F93CF93DF93EC019A01B5
:1016B000462F50E060E070E0E9DF8C01CE0138DFBA
:1016C000800F911FDF91CF911F910F910895505876
:1016D000BB27AA270ED089C17AD130F07FD120F064
:1016E00031F49F3F11F41EF46FC10EF4E095E7FB57
:1016F0003CC1E92F8BD180F3BA17620773078407C7
:10170000950718F071F49EF5BAC10EF4E0950B2E12
:10171000BA2FA02D0B01B90190010C01CA01A00143
:101720001124FF27591B99F0593F50F4503E68F19E
:101730001A16F040A22F232F342F4427585FF3CFDF
:10174000469537952795A795F0405395C9F77EF4B0
:101750001F16BA0B620B730B840BBAF09150A1F0F9
:10176000FF0FBB1F661F771F881FC2F70EC0BA0F7F
:10177000621F731F841F48F4879577956795B79507
:10178000F7959E3F08F0B3CF9395880F08F09927FF
:10179000EE0F9795879508950CD027C11FD140F083
:1017A00016D130F021F45F3F19F0DFC0511168C14C
:1017B0000BC12CD198F39923C9F35523B1F3951B91
:1017C000550BBB27AA2762177307840738F09F5F62
:1017D0005F4F220F331F441FAA1FA9F333D00E2ED1
:1017E0003AF0E0E830D091505040E695001CCAF73E
:1017F00029D0FE2F27D0660F771F881FBB1F261703
:1018000037074807AB07B0E809F0BB0B802DBF01D5
:10181000FF2793585F4F2AF09E3F510568F0A5C0FF
:101820002FC15F3FECF3983EDCF386957795679583
:10183000B795F7959F5FC9F7880F911D9695879586
:1018400097F90895E1E0660F771F881FBB1F6217A5
:1018500073078407BA0720F0621B730B840BBA0B63
:10186000EE1F88F7E095089504D06894B11108C17F
:101870000895D4D088F09F5790F0B92F9927B75189
:10188000A0F0D1F0660F771F881F991F1AF0BA9544
:10189000C9F712C0B13081F0F2D0B1E00895EFC0C5
:1018A000672F782F8827B85F39F0B93FCCF386953A
:1018B00077956795B395D9F73EF490958095709597
:1018C00061957F4F8F4F9F4F0895E89409C097FB14
:1018D0003EF490958095709561957F4F8F4F9F4F07
:1018E0009923A9F0F92F96E9BB279395F69587954B
:1018F00077956795B795F111F8CFFAF4BB0F11F40E
:1019000060FF1BC06F5F7F4F8F4F9F4F16C08823B4
:1019100011F096E911C0772321F09EE8872F762FEA
:1019200005C0662371F096E8862F70E060E02AF02B
:101930009A95660F771F881FDAF7880F9695879517
:1019400097F9089585D080F09F3740F491110EF0FB
:1019500097C060E070E080E89FEB089526F41B16C6
:10196000611D711D811D07C021C097F99F6780E827
:1019700070E060E00895882371F4772321F0985097
:10198000872B762F07C0662311F499270DC090513D
:10199000862B70E060E02AF09A95660F771F881F0B
:1019A000DAF7880F9695879597F908959F3F31F05C
:1019B000915020F4879577956795B795880F911D7D
:1019C0009695879597F908959FEF80EC08950024E8
:1019D0000A941616170618060906089500240A9494
:1019E00012161306140605060895092E0394000C1A
:1019F00011F4882352F0BB0F40F4BF2B11F460FFA9
:101A000004C06F5F7F4F8F4F9F4F089557FD9058D1
:101A1000440F551F59F05F3F71F04795880F97FBB2
:101A2000991F61F09F3F79F087950895121613066C
:101A30001406551FF2CF4695F1DF08C0161617069B
:101A40001806991FF1CF86957105610508940895D0
:101A5000E5DFA0F0BEE7B91788F4BB279F3860F434
:101A60001616B11D672F782F8827985FF7CF8695B8
:101A700077956795B11D93959639C8F30895E894C5
:101A8000BB2766277727CB0197F908950BD0ADCFF9
:101A90009EDF28F0A3DF18F0952309F066CF94CFDE
:101AA0001124EECFB3DFA0F3959FD1F3950F50E053
:101AB000551F629FF001729FBB27F00DB11D639F00
:101AC000AA27F00DB11DAA1F649F6627B00DA11DA6
:101AD000661F829F2227B00DA11D621F739FB00D4C
:101AE000A11D621F839FA00D611D221F749F3327BC
:101AF000A00D611D231F849F600D211D822F762F55
:101B00006A2F11249F5750408AF0E1F088234AF051
:101B1000EE0FFF1FBB1F661F771F881F915050409D
:101B2000A9F79E3F510570F020CFAACF5F3FECF39D
:101B3000983EDCF3869577956795B795F795E79589
:101B40009F5FC1F7FE2B880F911D9695879597F99A
:101B50000895A1E21A2EAA1BBB1BFD010DC0AA1FEE
:101B6000BB1FEE1FFF1FA217B307E407F50720F006
:101B7000A21BB30BE40BF50B661F771F881F991F81
:101B80001A9469F760957095809590959B01AC01CA
:101B9000BD01CF010895EE0FFF1F0590F491E02DD8
:0E1BA00019940790F691E02D1994F894FFCF58
:101BAE00012075732070657220706572696F640014
:101BBE00207573207065722062697400313620635F
:101BCE0068616E6E656C20536572766F20746573F6
:101BDE007421003A0000000000610235020A021270
:101BEE00022502340200000000D608520A2B0844D7
:101BFE00083608B5080D0A006E616E00696E660043
:061C0E006F7666002E0057
:00000001FF
