:1000000016C1000045C1000043C1000041C100000D
:100010003FC100003DC100003BC1000039C10000EC
:1000200037C1000035C1000033C1000031C10000FC
:100030002FC100002DC100002BC1000029C100000C
:1000400027C1000025C1000023C1000021C100001C
:10005000E0C500001DC100001BC1000071C7000009
:1000600017C100000C94FE0A0C94340B11C100005F
:100070000FC100000DC100000BC1000009C100004C
:1000800007C1000005C1000003C1000001C100005C
:10009000FFC00000FDC00000FBC000008CC40000D9
:1000A000F7C00000F5C00000F3C00000F1C0000080
:1000B000EFC00000EDC00000EBC00000E9C0000090
:1000C000E7C00000E5C00000E3C00000E1C00000A0
:1000D000DFC00000DDC00000DBC00000D9C00000B0
:1000E000D7C00000BE08C108B008B408BA08F808B4
:1000F000C508C908CF08D308D708DD08E108E50816
:10010000F808EB08EF08F30800000A0B02090C0DD1
:100110000E080703040100000000000000000000BA
:1001200000000000000000000000000000000000CF
:10013000000000001211100000000000000000008C
:1001400000000000000000000000000000000102AC
:1001500010202008081020401020408002010201D9
:100160000804020101020408102040808040201091
:1001700008040201800402018040201008040201EA
:100180000804020101020408102040800102040852
:10019000102040800505050507050808080802022B
:1001A00002020A0A08080404040401010101010111
:1001B00001010303030303030303040707070C0CF4
:1001C0000C0C0C0C0C0C02020202060606060606BB
:1001D00006060B0B0B0B0B0B0B0B00002000230078
:1001E000260029002C002F0032000001000003012E
:1001F0000601090100002200250028002B002E0026
:100200003100340002010000050108010B0100006B
:100210002100240027002A002D00300033000101B6
:100220000000040107010A01DE01F403660B11243A
:100230001FBECFEFD1E2DEBFCDBF00E00CBF12E0AA
:10024000A0E0B2E0E0EDFDE100E00BBF02C00790EE
:100250000D92AA3AB107D9F724E0AAEAB2E001C0A8
:100260001D92A831B207E1F712E0CEE2D2E000E041
:1002700006C022970109FE010BBF0E94E20EC832A0
:10028000D10780E00807A9F70E94AA0B0C94E60E9C
:10029000B7CECF93E2E0F2E0A8E0B2E048EC50E065
:1002A00060E971E0208131818D919D912817390796
:1002B000D1F0281739074CF4265F3F4F3183208354
:1002C0002039314014F0718360832081318182179D
:1002D00093074CF4C9010A9791838083893C910567
:1002E00014F451834083329682E0E830F807D1F667
:1002F000CF91089526E040E051EE60E070E08BE79A
:1003000093E00E949E0A8BEA92E0ABD540E050E079
:1003100068E472E48BEA92E0CAD544EF51E060E011
:1003200070E08CE693E008D52FEF3FEFA90169E478
:1003300071E08CE693E00FD560E08091160259D70A
:1003400060E08091140255D760E08091120251D78D
:1003500060E0809110024DD760E080910E0249D795
:1003600028EC30E040E050E060E08BEA92E016D507
:1003700028EC30E040E050E064E08BEA92E00ED5FB
:1003800028EC30E040E050E068E08BEA92E006D5EF
:1003900028EC30E040E050E06CE08BEA92E0FED4E4
:1003A00028EC30E040E050E06FE08BEA92E0F6D4D9
:1003B00063E372E08BE793E00C94FF0B60E48BEA5D
:1003C00092E0E9C48BE793E0C3D78F3F2FEF92070A
:1003D00009F479C08237910509F453C084F482335B
:1003E000910509F457C084369105C9F0C19709F009
:1003F0006AC080910002909101020A9650C0843731
:100400009105D9F0A4F18537910509F05CC0809180
:10041000AA02882309F457C06AE472E015C08091EB
:10042000AA02882309F44FC06EE472E08BE793E0E0
:100430000E94F40B88EC90E00DC08091AA02882302
:1004400009F441C062E572E08BE793E00E94F40B8F
:1004500080E991E0909309028093080290930B0247
:1004600080930A0290930D0280930C022CC066E5E3
:1004700072E08BE793E00E94F40B81E08093AA0284
:1004800022C060E672E08BE793E00E94F40B1092CA
:10049000AA0219C080910002909101020A979093DC
:1004A0000102809300026AE672E08BE793E00E940B
:1004B000F40B60910002709101024AE050E08BE77A
:1004C00093E00E94A30C8091AA02811140C0809108
:1004D0001602FDD6892B19F080E991E002C088EC64
:1004E00090E0909309028093080280911402EFD665
:1004F000892B19F080E991E002C088EC90E090939C
:100500000B0280930A0280911002E1D6892B19F028
:100510008AEF90E00AC080911202D9D6892B19F097
:1005200080E991E002C088EC90E090930D02809306
:100530000C0280910E02CBD6892B19F08EE591E04A
:1005400002C080EA90E09093010280930002209123
:1005500002023091030240E050E060E08BEA92E05A
:100560001DD4209104023091050240E050E064E087
:100570008BEA92E013D4209106023091070240E00A
:1005800050E068E08BEA92E009D4209100023091BB
:10059000010240E050E06CE08BEA92E0FFD3209152
:1005A00000023091010240E050E06FE08BEA92E0FF
:1005B000F5C38091DC0290E02091DD02821B91095D
:1005C00008952091DD028091DC02281750F4E22F7B
:1005D000F0E0E252FD4F808190E02F5F2093DD023A
:1005E00008958FEF9FEF0895E091DD028091DC0286
:1005F000E81730F4F0E0E252FD4F808190E008957A
:100600008FEF9FEF08950895CF92DF92EF92FF92C0
:100610000F931F93CF93DF937C01CB018A0120912D
:10062000B802222389F0EB016B01C40ED51ECC1554
:10063000DD0561F06991D701ED91FC910190F081A8
:10064000E02DC7011995F3CF642F8CD1C801DF913C
:10065000CF911F910F91FF90EF90DF90CF90089571
:10066000CF93DF931F92CDB7DEB769832091B80295
:100670002223D1F02091B902203240F021E030E075
:10068000FC013383228380E090E014C08091BA02A1
:10069000E82FF0E0E554FD4F998190838F5F8093C0
:1006A000BA028093B90204C061E0CE0101965AD12A
:1006B00081E090E00F90DF91CF910895FC011382CB
:1006C000128248EE53E060E070E044835583668315
:1006D00077838CE792E09183808308951092DD0206
:1006E0001092DC021092BA021092B90280C081E02E
:1006F0008093B8026093DB021092BA021092B902A2
:1007000008950F93062F21E04091B9026BEB72E040
:100710008091DB02D0D01092BA021092B9021092EE
:10072000B8020F9108958F929F92AF92BF92CF928D
:10073000DF92EF92FF920F931F93CF93DF93EC0121
:10074000F62ED42E48015901EE2009F1D0DF1E2DDE
:10075000143008F013E01150B8F0E881F98128E076
:10076000129FB0011124A501940104C0569547952C
:10077000379527956A95D2F7CA01B9010190F081A2
:10078000E02DCE011995E7CF60E0CE01BADF4D2D07
:10079000413208F040E22C2D6EED72E08F2D43D0F7
:1007A0001092DD028093DC02DF91CF911F910F91B7
:1007B000FF90EF90DF90CF90BF90AF909F908F9081
:1007C0000895CF92EF920F931F93C22EE12C00E079
:1007D00010E09801A8DF1F910F91EF90CF9008953E
:1007E00021E0EFCF61E08DCF8CEA92E067CF1092ED
:1007F0006B0381E0809369031092680361E084E1F8
:1008000031D561E085E12ED5E9EBF0E080818E7F86
:10081000808380818D7F808388E48093B80085E425
:100820008093BC000895413208F043C090916B035F
:100830009111FCCF91E090936B03209369032FEF0C
:100840002093FE0210924303240F209342039093BF
:100850006A0390916A03880F892B80936A038091C1
:100860006803813061F41092680380916A03809379
:10087000BB008091BC0083FDF8CF85EC01C085EE04
:100880008093BC0080916B038130E1F3809143033E
:10089000841710F44091430324E433E0FB01D901B1
:1008A0008A2F821B841718F48D918193F9CF842F9E
:1008B000089580E008950F93413208F04AC0909166
:1008C0006B039111FCCF92E090936B03009369034B
:1008D0009FEF9093FE021092430340934203FB016B
:1008E00064E473E0DB019A2F961B941718F491913E
:1008F0009D93F9CF10926A0390916A03880F892B18
:1009000080936A0380916803813061F410926803D8
:1009100080916A038093BB008091BC0083FDF8CF77
:1009200085EC01C085EE8093BC00222321F08091EC
:100930006B038230E1F38091FE028F3F61F0809182
:10094000FE02803251F08091FE02803341F483E058
:1009500007C081E005C080E003C082E001C084E000
:100960000F910895613298F420916B03243089F43B
:1009700060932003FC0182E293E0DC012A2F281B14
:10098000261718F421912D93F9CF80E0089581E086
:10099000089582E0089585ED8093BC008091BC00AD
:1009A00084FDFCCF10926B03089585EC8093BC000E
:1009B00010926B0308951F920F920FB60F9211249D
:1009C0000BB60F922F933F934F935F936F937F9349
:1009D0008F939F93AF93BF93EF93FF938091B90051
:1009E000887F803609F49DC070F5883209F45CC0B8
:1009F00090F4803109F455C038F4882309F4F3C029
:100A0000883009F44EC0F2C0883109F44DC08032FC
:100A100009F45EC0EBC0803409F469C050F480333F
:100A200009F456C0883309F0E1C08093FE02BDDFAF
:100A3000DDC0803509F44FC0883509F45DC08834C5
:100A400009F0D4C0D2C0883909F4C3C0A8F48837EB
:100A500009F467C038F4883609F463C0803709F4B4
:100A600060C0C4C0883809F4B4C0803909F45FC0DC
:100A7000803809F0BBC05BC0803B09F482C038F409
:100A8000803A09F466C0883A09F47BC0AFC0803C64
:100A900009F4A3C0883C09F4A0C0883B09F486C0CF
:100AA000A5C080916A0310C09091430380914203D6
:100AB000981770F5E091430381E08E0F8093430314
:100AC000F0E0EC5BFC4F80818093BB0085EC82C042
:100AD0008093FE028AC0E091430381E08E0F8093F1
:100AE00043038091BB00F0E0EC5BFC4F808390916E
:100AF0004303809142036AC0E091430381E08E0F7B
:100B0000809343038091BB00F0E0EC5BFC4F80835B
:100B100080916903811169C081E08093680384EA50
:100B20005DC083E080936B031092FF02CFCF809172
:100B3000FF02803208F04DC0E091FF0281E08E0F8D
:100B40008093FF028091BB00F0E0E050FD4F808376
:100B5000BDCF2BDF8091FF02803230F4E091FF02A5
:100B6000F0E0E050FD4F10826091FF0270E0E091F4
:100B70006403F091650380E093E019951092FF0201
:100B800035C084E080936B03109221031092200300
:100B9000E0916603F091670319958091200381111C
:100BA00005C081E08093200310922203E09121038D
:100BB00081E08E0F80932103F0E0EE5DFC4F808199
:100BC0008093BB009091210380912003981708F433
:100BD0007DCF85E88093BC0009C085EC8093BC0084
:100BE00010926B0303C01092FE02D5DEFF91EF91CD
:100BF000BF91AF919F918F917F916F915F914F9135
:100C00003F912F910F900BBE0F900FBE0F901F9032
:100C100018951F920F920FB60F9211240BB60F92D8
:100C20002F933F934F935F936F937F938F939F93F4
:100C3000AF93BF93EF93FF93E0917003F091710333
:100C40001995FF91EF91BF91AF919F918F917F91F6
:100C50006F915F914F913F912F910F900BBE0F902D
:100C60000FBE0F901F901895FC01A3E0440F551F75
:100C7000661F771FAA95D1F74115510581E06807D6
:100C8000710514F481E00EC033E0759567955795B2
:100C900047953A95D1F74115510581E068077105EF
:100CA0001CF482E0828331C023E0759567955795E7
:100CB00047952A95D1F74115510581E068077105DF
:100CC00014F483E0EFCF92E07595679557954795BB
:100CD0009A95D1F74115510581E06807710514F423
:100CE00084E0E0CF82E075956795579547958A95A2
:100CF000D1F785E082834115510581E068077105D0
:100D000024F04FEF5FEF60E070E08FB78383F894DB
:100D100051834083509387004093860083818FBF27
:100D200080918100887F80938100809181009281F1
:100D3000892B8093810008951092800020E12093F8
:100D4000810092CFE1E8F0E02081DC0112968C91E5
:100D5000282B208308950F931F93CF93DF93EC01EB
:100D60008B01BA01A90114161506160617060CF414
:100D70007BDF1D830C8381E080936F00CE01DF91C8
:100D8000CF911F910F91DECFDC01ED91FC9101908D
:100D9000F081E02D1994FC0160830895FF920F9378
:100DA0001F93CF93DF931F921F92CDB7DEB7162FFD
:100DB000F52E032FFC0160818CEA92E02A8349839F
:100DC00096DCE091AC02F091AD0284E0189FB00196
:100DD00011246A5F7F4F0190F081E02D8CEA92E050
:100DE00019954981642F7F2D8CEA92E0CDDF6F2D1C
:100DF00070E08CEA92E0C8DF2A81622F702F8CEAC3
:100E000092E0C2DF602F70E08CEA92E0BDDF8CEAF6
:100E100092E00F900F90DF91CF911F910F91FF9073
:100E2000E1CC1F93CF93DF931F92CDB7DEB7162F80
:100E3000FC0160818CEA92E0498359DC612F8CEAE5
:100E400092E00EDC4981642F8CEA92E009DC8CEAA6
:100E500092E00F90DF91CF911F91C4CC40E060E011
:100E6000E0CFCF93DF93EC018CEA92E037DCCE0148
:100E7000DF91CF91F3CF1F93CF93DF93EC01162F28
:100E800068818CEA92E033DC612F8CEA92E0E8DB47
:100E90008CEA92E0A7DC41E068818CEA92E0A0DC79
:100EA0008CEA92E08EDBDF91CF911F910895CF9273
:100EB000DF92EF92FF921F93CF93DF93EC01CB0170
:100EC000BA0126E636E646E65FE3F1D69B01AC01C1
:100ED00060E27CEB8EEB95E4B2D520E030E040E8B8
:100EE0005FE348D520E030E040E05FE344D53BD607
:100EF0006B017C0160E0CE01BEDF182F482F4F76DA
:100F0000406160E0CE018DDFC701B60100D6462FFB
:100F10006EEFCE0186DF412F60E0CE0182DF65E01B
:100F200070E080E090E079D0412F416A60E0CE012E
:100F3000DF91CF911F91FF90EF90DF90CF9071CF15
:100F40001F920F920FB60F9211242F933F938F93FE
:100F50009F93AF93BF938091730390917403A0917B
:100F60007503B09176033091720323E0230F2D3780
:100F700020F40196A11DB11D05C026E8230F02969D
:100F8000A11DB11D2093720380937303909374038A
:100F9000A0937503B09376038091770390917803C3
:100FA000A0917903B0917A030196A11DB11D8093A0
:100FB000770390937803A0937903B0937A03BF915A
:100FC000AF919F918F913F912F910F900FBE0F90F6
:100FD0001F9018953FB7F89480917703909178030C
:100FE000A0917903B0917A0326B5A89B05C02F3F45
:100FF00019F00196A11DB11D3FBF6627782F892FDB
:101000009A2F620F711D811D911D42E0660F771F9F
:10101000881F991F4A95D1F708958F929F92AF929A
:10102000BF92CF92DF92EF92FF926B017C01D2DFF1
:101030004B015C01C114D104E104F104E1F099D445
:10104000C9DF681979098A099B09683E73408105DF
:10105000910580F321E0C21AD108E108F10888EE79
:10106000880E83E0981EA11CB11CC114D104E104B8
:10107000F10431F7DFCFFF90EF90DF90CF90BF907A
:10108000AF909F908F900895789484B5826084BDCE
:1010900084B5816084BD85B5826085BD85B581607C
:1010A00085BDEEE6F0E0808181608083E1E8F0E0DC
:1010B0001082808182608083808181608083E0E80B
:1010C000F0E0808181608083E1EBF0E080818460EA
:1010D0008083E0EBF0E0808181608083E1E9F0E0F3
:1010E000808182608083808181608083E0E9F0E09C
:1010F000808181608083E1EAF0E08081826080838A
:10110000808181608083E0EAF0E08081816080837B
:10111000E1E2F1E080818260808380818160808370
:10112000E0E2F1E0808181608083EAE7F0E08081A5
:1011300084608083808182608083808181608083FD
:101140008081806880831092C100089590E0FC0146
:101150003197E231F10508F04BC0EE58FF4F2CC635
:10116000809180008F7703C0809180008F7D809375
:101170008000089580918000877FF9CF84B58F77B4
:1011800002C084B58F7D84BD08958091B0008F77B3
:1011900003C08091B0008F7D8093B000089580914E
:1011A00090008F7707C0809190008F7D03C0809161
:1011B0009000877F8093900008958091A0008F77A2
:1011C00007C08091A0008F7D03C08091A000877F21
:1011D0008093A0000895809120018F7707C08091AF
:1011E00020018F7D03C080912001877F80932001A3
:1011F0000895CF93DF9390E0FC01E25BFE4F2491D2
:10120000FC01EC56FE4F8491882349F190E0880F51
:10121000991FFC01E25FFD4FA591B4918C509E4F48
:10122000FC01C591D4919FB7611108C0F8948C91CD
:10123000209582238C93888182230AC0623051F4E6
:10124000F8948C91322F309583238C938881822B54
:10125000888304C0F8948C91822B8C939FBFDF917C
:10126000CF9108950F931F93CF93DF931F92CDB724
:10127000DEB7282F30E0F901E85FFE4F8491F901D5
:10128000E25BFE4F1491F901EC56FE4F04910023EE
:10129000C1F0882319F0698359DF6981E02FF0E0FC
:1012A000EE0FFF1FEC50FE4FA591B4919FB7F8943D
:1012B0008C91611103C01095812301C0812B8C9307
:1012C0009FBF0F90DF91CF911F910F910895CF9302
:1012D000DF93282F30E0F901E85FFE4F8491F90198
:1012E000E25BFE4FD491F901EC56FE4FC491CC2342
:1012F00089F081112BDFEC2FF0E0EE0FFF1FE6529B
:10130000FE4FA591B4912C912D2381E090E021F422
:1013100080E002C080E090E0DF91CF910895FC0171
:10132000818D228D90E0805C9F4F821B91098F738D
:1013300099270895FC01918D828D981731F0828D47
:10134000E80FF11D858D90E008958FEF9FEF0895D0
:10135000FC01918D828D981761F0828DDF01A80FBD
:10136000B11D5D968C91928D9F5F9F73928F90E0DF
:1013700008958FEF9FEF08958DE59BE0892B39F05D
:1013800080E090E0892B19F098D1811125C080E090
:1013900090E0892B41F080E090E0892B21F00E94C1
:1013A000000081111CC080E090E0892B41F080E0BA
:1013B00090E0892B21F00E940000811113C080E091
:1013C00090E0892BA1F080E090E0892B81F00E94D1
:1013D000000081110AC008950E940000D8CF0E9429
:1013E0000000E1CF0E940000EACF0C9400000895B5
:1013F000FC01848DDF01A80FB11DA35ABF4F2C91B2
:10140000848D90E001968F739927848FA689B78980
:101410002C93A089B1898C9180648C93938D848D59
:10142000981306C00288F389E02D80818F7D808328
:101430000895CF93DF93EC01888D8823C1F0EA896A
:10144000FB89808185FD05C0A889B9898C9186FDBD
:101450000EC00FB607FCF5CF808185FFF2CFA889BB
:10146000B9898C9185FFEDCFCE01C2DFE8CFDF9146
:10147000CF910895CF92DF92FF920F931F93CF9356
:10148000DF931F92CDB7DEB76C0181E0D60158968D
:101490008C9358975B969C915B975C968C915C972C
:1014A000981307C05096ED91FC915197808185FD6E
:1014B0002DC0F601038D10E00F5F1F4F0F73112732
:1014C000F02EF601848DF81210C00FB607FCF9CF8C
:1014D000D6015096ED91FC915197808185FFF1CF17
:1014E000C601698385DF6981ECCF838DE80FF11D2B
:1014F000E35AFF4F6083D6015B960C935B9752963D
:10150000ED91FC915397808180620CC0D601569674
:10151000ED91FC91579760835096ED91FC91519716
:1015200080818064808381E090E00F90DF91CF9193
:101530001F910F91FF90DF90CF900895BF92CF92AF
:10154000DF92EF92FF92CF93DF93EC016A017B0170
:10155000B22EE889F98982E08083411581EE58072F
:101560006105710599F060E079E08DE390E0A701F5
:10157000960100D4215031094109510956954795EA
:1015800037952795211580E1380790F0E889F9898A
:10159000108260E874E88EE190E0A7019601EAD33A
:1015A000215031094109510956954795379527959D
:1015B000EC85FD853083EE85FF852083188EEC89D0
:1015C000FD89B082EA89FB89808180618083EA8914
:1015D000FB89808188608083EA89FB8980818068BB
:1015E0008083EA89FB8980818F7D8083DF91CF9121
:1015F000FF90EF90DF90CF90BF9008951F920F92D1
:101600000FB60F9211240BB60F922F938F939F93C7
:10161000EF93FF93E0918B03F0918C038081E09135
:101620009103F091920382FD12C090818091940306
:101630008F5F8F7320919503821751F0E09194038F
:10164000F0E0E558FC4F958F8093940301C08081B2
:10165000FF91EF919F918F912F910F900BBE0F9063
:101660000FBE0F901F9018951F920F920FB60F92FA
:1016700011240BB60F922F933F934F935F936F9369
:101680007F938F939F93AF93BF93EF93FF938BE7DA
:1016900093E0AEDEFF91EF91BF91AF919F918F915B
:1016A0007F916F915F914F913F912F910F900BBE62
:1016B0000F900FBE0F901F9018958BE793E02FDED1
:1016C00021E0892B09F420E0822F089510927E03F7
:1016D00010927D0388EE93E0A0E0B0E080937F035A
:1016E00090938003A0938103B09382038CE892E0EF
:1016F00090937C0380937B0385EC90E09093880328
:101700008093870384EC90E090938A03809389030D
:1017100080EC90E090938C0380938B0381EC90E0BD
:1017200090938E0380938D0382EC90E090939003CE
:1017300080938F0386EC90E09093920380939103C3
:1017400010929403109295031092960310929703AF
:101750000895089599DCFDDF0E947A01CCEBD9E071
:101760000E94E2012097E1F307DEFACFCF92DF92E9
:10177000EF92FF920F931F93CF93DF937C016A0147
:10178000EB0100E010E00C151D0571F06991D70127
:10179000ED91FC910190F081E02DC7011995892B05
:1017A00019F00F5F1F4FEFCFC801DF91CF911F914D
:1017B0000F91FF90EF90DF90CF9008956115710524
:1017C00081F0DB010D900020E9F7AD014150510996
:1017D000461B570BDC01ED91FC910280F381E02D5B
:1017E000199480E090E00895E9CFDC01ED91FC913F
:1017F0000190F081E02D199468E972E0DFCF0F933A
:101800001F93CF93DF93EC01D9DF8C01CE01F4DF7E
:10181000800F911FDF91CF911F910F9108958F92AB
:101820009F92AF92BF92DF92EF92FF920F931F931E
:10183000CF93DF93CDB7DEB7A1970FB6F894DEBF95
:101840000FBECDBF7C01F42FD52ECB0119A22230C3
:1018500008F42AE08E010F5D1F4F822E912CA12CDF
:10186000B12C6F2F7D2DA501940184D2F22FD32EA0
:10187000CA01015011096A3014F4E0E301C0E7E342
:10188000E60FD801EC93232B242B252B51F7B8011D
:10189000C70194DFA1960FB6F894DEBF0FBECDBF8F
:1018A000DF91CF911F910F91FF90EF90DF90BF904C
:1018B000AF909F908F900895CF92DF92EF92FF921A
:1018C0000F931F93CF93DF93EC016A017B012115E6
:1018D000310579F4E881F9810190F081E02D642FE0
:1018E000DF91CF911F910F91FF90EF90DF90CF90FC
:1018F00019942A303105D9F477FF18C06DE275DFED
:101900008C0144275527BA014C195D096E097F09DE
:101910002AE0CE0184DF800F911FDF91CF911F91CC
:101920000F91FF90EF90DF90CF9008952AE0B701DC
:10193000A601CE01DF91CF911F910F91FF90EF9003
:10194000DF90CF906CCF0F931F93CF93DF93EC0179
:101950009A01AB01662757FD6095762FADDF8C01AC
:10196000CE014ADF800F911FDF91CF911F910F9120
:10197000089508955058BB27AA270ED047C138D1E3
:1019800030F03DD120F031F49F3F11F41EF42DC111
:101990000EF4E095E7FBFAC0E92F49D180F3BA17BE
:1019A000620773078407950718F071F49EF578C1F4
:1019B0000EF4E0950B2EBA2FA02D0B01B90190016A
:1019C0000C01CA01A0011124FF27591B99F0593FAE
:1019D00050F4503E68F11A16F040A22F232F342FF6
:1019E0004427585FF3CF469537952795A795F04044
:1019F0005395C9F77EF41F16BA0B620B730B840B59
:101A0000BAF09150A1F0FF0FBB1F661F771F881F10
:101A1000C2F70EC0BA0F621F731F841F48F4879568
:101A200077956795B795F7959E3F08F0B3CF939557
:101A3000880F08F09927EE0F9795879508950CD099
:101A4000E5C0DDD040F0D4D030F021F45F3F19F094
:101A50009DC0511126C1C9C0EAD098F39923C9F39A
:101A60005523B1F3951B550BBB27AA2762177307A4
:101A7000840738F09F5F5F4F220F331F441FAA1F58
:101A8000A9F333D00E2E3AF0E0E830D09150504018
:101A9000E695001CCAF729D0FE2F27D0660F771FC6
:101AA000881FBB1F261737074807AB07B0E809F0A8
:101AB000BB0B802DBF01FF2793585F4F2AF09E3F3D
:101AC000510568F063C0EDC05F3FECF3983EDCF376
:101AD000869577956795B795F7959F5FC9F7880FB6
:101AE000911D9695879597F90895E1E0660F771F08
:101AF000881FBB1F621773078407BA0720F0621B99
:101B0000730B840BBA0BEE1F88F7E095089597D0FE
:101B100088F09F5790F0B92F9927B751A0F0D1F0D6
:101B2000660F771F881F991F1AF0BA95C9F712C060
:101B3000B13081F0B5D0B1E00895B2C0672F782FF1
:101B40008827B85F39F0B93FCCF3869577956795CC
:101B5000B395D9F73EF490958095709561957F4F38
:101B60008F4F9F4F089585D080F09F3740F491119B
:101B70000EF097C060E070E080E89FEB089526F4D7
:101B80001B16611D711D811D07C021C097F99F673C
:101B900080E870E060E00895882371F4772321F0F5
:101BA0009850872B762F07C0662311F499270DC014
:101BB0009051862B70E060E02AF09A95660F771FAF
:101BC000881FDAF7880F9695879597F908959F3FB4
:101BD00031F0915020F4879577956795B795880FE8
:101BE000911D9695879597F908959FEF80EC08953C
:101BF00000240A94161617061806090608950024EC
:101C00000A9412161306140605060895092E039465
:101C1000000C11F4882352F0BB0F40F4BF2B11F4D9
:101C200060FF04C06F5F7F4F8F4F9F4F089557FD38
:101C30009058440F551F59F05F3F71F04795880F3A
:101C400097FB991F61F09F3F79F0879508951216D1
:101C500013061406551FF2CF4695F1DF08C016167D
:101C600017061806991FF1CF86957105610508942E
:101C70000895E5DFA0F0BEE7B91788F4BB279F38C9
:101C800060F41616B11D672F782F8827985FF7CF5D
:101C9000869577956795B11D93959639C8F3089504
:101CA000E894BB2766277727CB0197F908950BD0D7
:101CB000ADCF9EDF28F0A3DF18F0952309F066CFA3
:101CC00094CF1124EECFB3DFA0F3959FD1F3950FFE
:101CD00050E0551F629FF001729FBB27F00DB11DB0
:101CE000639FAA27F00DB11DAA1F649F6627B00D40
:101CF000A11D661F829F2227B00DA11D621F739F29
:101D0000B00DA11D621F839FA00D611D221F749F36
:101D10003327A00D611D231F849F600D211D822F7D
:101D2000762F6A2F11249F5750408AF0E1F08823C4
:101D30004AF0EE0FFF1FBB1F661F771F881F9150D1
:101D40005040A9F79E3F510570F020CFAACF5F3FCA
:101D5000ECF3983EDCF3869577956795B795F79504
:101D6000E7959F5FC1F7FE2B880F911D969587958C
:101D700097F90895A1E21A2EAA1BBB1BFD010DC005
:101D8000AA1FBB1FEE1FFF1FA217B307E407F5072B
:101D900020F0A21BB30BE40BF50B661F771F881F07
:101DA000991F1A9469F760957095809590959B019D
:101DB000AC01BD01CF010895EE0FFF1F0590F49116
:101DC000E02D19940790F691E02D1994F894FFCF27
:101DD000A000C80000000000C800000000002600AD
:101DE0002400220020001E002075732070657220E0
:101DF000706572696F64002075732070657220626F
:101E00006974003136206368616E6E656C205365BD
:101E100072766F20746573742100550A0D00440AB0
:101E20000D00540A0D0053657474696E670A0D0045
:101E300072756E6E696E670A0D007368616261612A
:101E400073685F76616C3D0000000000300304039E
:101E5000D902E102F4020303000000003A0AB60BC3
:101E60008F09A8099A09190A0D0A006E616E0069A6
:0A1E70006E66006F7666002E00001B
:00000001FF
